{
  "_format": "hh-sol-artifact-1",
  "contractName": "LendingPool",
  "sourceName": "contracts/LendingPool.sol",
  "abi": [
    {
      "inputs": [
        {
          "internalType": "address",
          "name": "_bpToken",
          "type": "address"
        }
      ],
      "stateMutability": "nonpayable",
      "type": "constructor"
    },
    {
      "anonymous": false,
      "inputs": [
        {
          "indexed": true,
          "internalType": "address",
          "name": "asset",
          "type": "address"
        },
        {
          "indexed": false,
          "internalType": "uint256",
          "name": "ltv",
          "type": "uint256"
        },
        {
          "indexed": false,
          "internalType": "uint256",
          "name": "liquidationThreshold",
          "type": "uint256"
        },
        {
          "indexed": false,
          "internalType": "uint256",
          "name": "liquidationBonus",
          "type": "uint256"
        }
      ],
      "name": "AssetConfigUpdated",
      "type": "event"
    },
    {
      "anonymous": false,
      "inputs": [
        {
          "indexed": true,
          "internalType": "address",
          "name": "user",
          "type": "address"
        },
        {
          "indexed": true,
          "internalType": "address",
          "name": "asset",
          "type": "address"
        },
        {
          "indexed": false,
          "internalType": "uint256",
          "name": "amount",
          "type": "uint256"
        }
      ],
      "name": "Borrow",
      "type": "event"
    },
    {
      "anonymous": false,
      "inputs": [
        {
          "indexed": true,
          "internalType": "address",
          "name": "user",
          "type": "address"
        },
        {
          "indexed": true,
          "internalType": "address",
          "name": "asset",
          "type": "address"
        },
        {
          "indexed": false,
          "internalType": "uint256",
          "name": "amount",
          "type": "uint256"
        }
      ],
      "name": "Deposit",
      "type": "event"
    },
    {
      "anonymous": false,
      "inputs": [
        {
          "indexed": true,
          "internalType": "address",
          "name": "user",
          "type": "address"
        },
        {
          "indexed": true,
          "internalType": "address",
          "name": "asset",
          "type": "address"
        },
        {
          "indexed": true,
          "internalType": "address",
          "name": "liquidator",
          "type": "address"
        },
        {
          "indexed": false,
          "internalType": "uint256",
          "name": "amount",
          "type": "uint256"
        }
      ],
      "name": "Liquidate",
      "type": "event"
    },
    {
      "anonymous": false,
      "inputs": [
        {
          "indexed": true,
          "internalType": "address",
          "name": "previousOwner",
          "type": "address"
        },
        {
          "indexed": true,
          "internalType": "address",
          "name": "newOwner",
          "type": "address"
        }
      ],
      "name": "OwnershipTransferred",
      "type": "event"
    },
    {
      "anonymous": false,
      "inputs": [
        {
          "indexed": false,
          "internalType": "address",
          "name": "account",
          "type": "address"
        }
      ],
      "name": "Paused",
      "type": "event"
    },
    {
      "anonymous": false,
      "inputs": [
        {
          "indexed": true,
          "internalType": "address",
          "name": "asset",
          "type": "address"
        },
        {
          "indexed": false,
          "internalType": "uint256",
          "name": "oldPrice",
          "type": "uint256"
        },
        {
          "indexed": false,
          "internalType": "uint256",
          "name": "newPrice",
          "type": "uint256"
        }
      ],
      "name": "PriceUpdated",
      "type": "event"
    },
    {
      "anonymous": false,
      "inputs": [
        {
          "indexed": true,
          "internalType": "address",
          "name": "user",
          "type": "address"
        },
        {
          "indexed": true,
          "internalType": "address",
          "name": "asset",
          "type": "address"
        },
        {
          "indexed": false,
          "internalType": "uint256",
          "name": "amount",
          "type": "uint256"
        }
      ],
      "name": "Repay",
      "type": "event"
    },
    {
      "anonymous": false,
      "inputs": [
        {
          "indexed": false,
          "internalType": "address",
          "name": "account",
          "type": "address"
        }
      ],
      "name": "Unpaused",
      "type": "event"
    },
    {
      "anonymous": false,
      "inputs": [
        {
          "indexed": true,
          "internalType": "address",
          "name": "user",
          "type": "address"
        },
        {
          "indexed": true,
          "internalType": "address",
          "name": "asset",
          "type": "address"
        },
        {
          "indexed": false,
          "internalType": "uint256",
          "name": "amount",
          "type": "uint256"
        }
      ],
      "name": "Withdraw",
      "type": "event"
    },
    {
      "inputs": [
        {
          "internalType": "address",
          "name": "",
          "type": "address"
        }
      ],
      "name": "assetConfigs",
      "outputs": [
        {
          "internalType": "uint256",
          "name": "ltv",
          "type": "uint256"
        },
        {
          "internalType": "uint256",
          "name": "liquidationThreshold",
          "type": "uint256"
        },
        {
          "internalType": "uint256",
          "name": "liquidationBonus",
          "type": "uint256"
        },
        {
          "internalType": "uint256",
          "name": "borrowRate",
          "type": "uint256"
        },
        {
          "internalType": "uint256",
          "name": "depositRate",
          "type": "uint256"
        },
        {
          "internalType": "bool",
          "name": "isActive",
          "type": "bool"
        }
      ],
      "stateMutability": "view",
      "type": "function"
    },
    {
      "inputs": [
        {
          "internalType": "address",
          "name": "",
          "type": "address"
        }
      ],
      "name": "assetPrices",
      "outputs": [
        {
          "internalType": "uint256",
          "name": "",
          "type": "uint256"
        }
      ],
      "stateMutability": "view",
      "type": "function"
    },
    {
      "inputs": [
        {
          "internalType": "address",
          "name": "asset",
          "type": "address"
        },
        {
          "internalType": "uint256",
          "name": "amount",
          "type": "uint256"
        }
      ],
      "name": "borrow",
      "outputs": [],
      "stateMutability": "nonpayable",
      "type": "function"
    },
    {
      "inputs": [],
      "name": "bpToken",
      "outputs": [
        {
          "internalType": "contract MyToken",
          "name": "",
          "type": "address"
        }
      ],
      "stateMutability": "view",
      "type": "function"
    },
    {
      "inputs": [
        {
          "internalType": "address",
          "name": "asset",
          "type": "address"
        },
        {
          "internalType": "uint256",
          "name": "amount",
          "type": "uint256"
        }
      ],
      "name": "deposit",
      "outputs": [],
      "stateMutability": "payable",
      "type": "function"
    },
    {
      "inputs": [
        {
          "internalType": "address",
          "name": "user",
          "type": "address"
        },
        {
          "internalType": "address",
          "name": "asset",
          "type": "address"
        }
      ],
      "name": "getBorrowableAmount",
      "outputs": [
        {
          "internalType": "uint256",
          "name": "",
          "type": "uint256"
        }
      ],
      "stateMutability": "view",
      "type": "function"
    },
    {
      "inputs": [
        {
          "internalType": "address",
          "name": "user",
          "type": "address"
        }
      ],
      "name": "getHealthFactor",
      "outputs": [
        {
          "internalType": "uint256",
          "name": "",
          "type": "uint256"
        }
      ],
      "stateMutability": "view",
      "type": "function"
    },
    {
      "inputs": [
        {
          "internalType": "address",
          "name": "user",
          "type": "address"
        },
        {
          "internalType": "address",
          "name": "collateralAsset",
          "type": "address"
        },
        {
          "internalType": "address",
          "name": "debtAsset",
          "type": "address"
        }
      ],
      "name": "liquidate",
      "outputs": [],
      "stateMutability": "payable",
      "type": "function"
    },
    {
      "inputs": [],
      "name": "owner",
      "outputs": [
        {
          "internalType": "address",
          "name": "",
          "type": "address"
        }
      ],
      "stateMutability": "view",
      "type": "function"
    },
    {
      "inputs": [],
      "name": "paused",
      "outputs": [
        {
          "internalType": "bool",
          "name": "",
          "type": "bool"
        }
      ],
      "stateMutability": "view",
      "type": "function"
    },
    {
      "inputs": [],
      "name": "renounceOwnership",
      "outputs": [],
      "stateMutability": "nonpayable",
      "type": "function"
    },
    {
      "inputs": [
        {
          "internalType": "address",
          "name": "asset",
          "type": "address"
        }
      ],
      "name": "repay",
      "outputs": [],
      "stateMutability": "payable",
      "type": "function"
    },
    {
      "inputs": [
        {
          "internalType": "address",
          "name": "asset",
          "type": "address"
        },
        {
          "internalType": "uint256",
          "name": "ltv",
          "type": "uint256"
        },
        {
          "internalType": "uint256",
          "name": "liquidationThreshold",
          "type": "uint256"
        },
        {
          "internalType": "uint256",
          "name": "liquidationBonus",
          "type": "uint256"
        },
        {
          "internalType": "uint256",
          "name": "borrowRate",
          "type": "uint256"
        },
        {
          "internalType": "uint256",
          "name": "depositRate",
          "type": "uint256"
        }
      ],
      "name": "setAssetConfig",
      "outputs": [],
      "stateMutability": "nonpayable",
      "type": "function"
    },
    {
      "inputs": [
        {
          "internalType": "address",
          "name": "asset",
          "type": "address"
        },
        {
          "internalType": "uint256",
          "name": "price",
          "type": "uint256"
        }
      ],
      "name": "setAssetPrice",
      "outputs": [],
      "stateMutability": "nonpayable",
      "type": "function"
    },
    {
      "inputs": [
        {
          "internalType": "address",
          "name": "",
          "type": "address"
        }
      ],
      "name": "totalBorrows",
      "outputs": [
        {
          "internalType": "uint256",
          "name": "",
          "type": "uint256"
        }
      ],
      "stateMutability": "view",
      "type": "function"
    },
    {
      "inputs": [
        {
          "internalType": "address",
          "name": "",
          "type": "address"
        }
      ],
      "name": "totalSupplies",
      "outputs": [
        {
          "internalType": "uint256",
          "name": "",
          "type": "uint256"
        }
      ],
      "stateMutability": "view",
      "type": "function"
    },
    {
      "inputs": [
        {
          "internalType": "address",
          "name": "newOwner",
          "type": "address"
        }
      ],
      "name": "transferOwnership",
      "outputs": [],
      "stateMutability": "nonpayable",
      "type": "function"
    },
    {
      "inputs": [
        {
          "internalType": "address",
          "name": "",
          "type": "address"
        },
        {
          "internalType": "address",
          "name": "",
          "type": "address"
        }
      ],
      "name": "userAssetStates",
      "outputs": [
        {
          "internalType": "uint256",
          "name": "collateral",
          "type": "uint256"
        },
        {
          "internalType": "uint256",
          "name": "debt",
          "type": "uint256"
        },
        {
          "internalType": "uint256",
          "name": "lastUpdateTime",
          "type": "uint256"
        }
      ],
      "stateMutability": "view",
      "type": "function"
    },
    {
      "inputs": [
        {
          "internalType": "address",
          "name": "asset",
          "type": "address"
        },
        {
          "internalType": "uint256",
          "name": "amount",
          "type": "uint256"
        }
      ],
      "name": "withdraw",
      "outputs": [],
      "stateMutability": "nonpayable",
      "type": "function"
    },
    {
      "stateMutability": "payable",
      "type": "receive"
    }
  ],
  "bytecode": "0x60806040523480156200001157600080fd5b5060405162003a2a38038062003a2a83398181016040528101906200003791906200042a565b60016000819055506000600160006101000a81548160ff0219169083151502179055506200007a6200006e620002f560201b60201c565b620002fd60201b60201c565b80600260006101000a81548173ffffffffffffffffffffffffffffffffffffffff021916908373ffffffffffffffffffffffffffffffffffffffff1602179055506040518060c00160405280611f40815260200161203a81526020016101f481526020016101f4815260200161012c815260200160011515815250600360008073ffffffffffffffffffffffffffffffffffffffff1673ffffffffffffffffffffffffffffffffffffffff168152602001908152602001600020600082015181600001556020820151816001015560408201518160020155606082015181600301556080820151816004015560a08201518160050160006101000a81548160ff0219169083151502179055509050506040518060c00160405280611d4c8152602001611f4081526020016101f481526020016102588152602001610190815260200160011515815250600360008373ffffffffffffffffffffffffffffffffffffffff1673ffffffffffffffffffffffffffffffffffffffff168152602001908152602001600020600082015181600001556020820151816001015560408201518160020155606082015181600301556080820151816004015560a08201518160050160006101000a81548160ff021916908315150217905550905050670de0b6b3a7640000600760008073ffffffffffffffffffffffffffffffffffffffff1673ffffffffffffffffffffffffffffffffffffffff16815260200190815260200160002081905550662386f26fc10000600760008373ffffffffffffffffffffffffffffffffffffffff1673ffffffffffffffffffffffffffffffffffffffff16815260200190815260200160002081905550506200045c565b600033905090565b600060018054906101000a900473ffffffffffffffffffffffffffffffffffffffff169050816001806101000a81548173ffffffffffffffffffffffffffffffffffffffff021916908373ffffffffffffffffffffffffffffffffffffffff1602179055508173ffffffffffffffffffffffffffffffffffffffff168173ffffffffffffffffffffffffffffffffffffffff167f8be0079c531659141344cd1fd0a4f28419497f9722a3daafe3b4186f6b6457e060405160405180910390a35050565b600080fd5b600073ffffffffffffffffffffffffffffffffffffffff82169050919050565b6000620003f282620003c5565b9050919050565b6200040481620003e5565b81146200041057600080fd5b50565b6000815190506200042481620003f9565b92915050565b600060208284031215620004435762000442620003c0565b5b6000620004538482850162000413565b91505092915050565b6135be806200046c6000396000f3fe6080604052600436106101185760003560e01c8063715018a6116100a05780639f7c73e9116100645780639f7c73e9146103c8578063ca5ce2ec146103e4578063f2fde38b14610400578063f3fef3a314610429578063fe6bcd7c146104525761011f565b8063715018a6146102ca5780637609d7f6146102e15780638d730124146103235780638da5cb5b146103605780639782e8211461038b5761011f565b806347e7ef24116100e757806347e7ef24146101f45780634b8a35291461021057806351323f72146102395780635c975abb146102625780635e9a523c1461028d5761011f565b806323685b9714610124578063274ec5711461014f578063334df6d11461018c578063395ea961146101b55761011f565b3661011f57005b600080fd5b34801561013057600080fd5b5061013961048f565b60405161014691906126d3565b60405180910390f35b34801561015b57600080fd5b5061017660048036038101906101719190612731565b6104b5565b604051610183919061278a565b60405180910390f35b34801561019857600080fd5b506101b360048036038101906101ae91906127d1565b610914565b005b3480156101c157600080fd5b506101dc60048036038101906101d79190612731565b610b06565b6040516101eb9392919061285e565b60405180910390f35b61020e60048036038101906102099190612895565b610b3d565b005b34801561021c57600080fd5b5061023760048036038101906102329190612895565b610f04565b005b34801561024557600080fd5b50610260600480360381019061025b9190612895565b6112d9565b005b34801561026e57600080fd5b506102776113b8565b60405161028491906128f0565b60405180910390f35b34801561029957600080fd5b506102b460048036038101906102af919061290b565b6113cf565b6040516102c1919061278a565b60405180910390f35b3480156102d657600080fd5b506102df6113e7565b005b3480156102ed57600080fd5b506103086004803603810190610303919061290b565b6113fb565b60405161031a96959493929190612938565b60405180910390f35b34801561032f57600080fd5b5061034a6004803603810190610345919061290b565b611444565b604051610357919061278a565b60405180910390f35b34801561036c57600080fd5b5061037561145c565b60405161038291906129a8565b60405180910390f35b34801561039757600080fd5b506103b260048036038101906103ad919061290b565b611484565b6040516103bf919061278a565b60405180910390f35b6103e260048036038101906103dd919061290b565b61149c565b005b6103fe60048036038101906103f991906129c3565b6116b2565b005b34801561040c57600080fd5b506104276004803603810190610422919061290b565b611cf0565b005b34801561043557600080fd5b50610450600480360381019061044b9190612895565b611d73565b005b34801561045e57600080fd5b506104796004803603810190610474919061290b565b612101565b604051610486919061278a565b60405180910390f35b600260009054906101000a900473ffffffffffffffffffffffffffffffffffffffff1681565b600080600090506000805b600281101561066b5760008082146104fa57600260009054906101000a900473ffffffffffffffffffffffffffffffffffffffff166104fd565b60005b90506000600460008973ffffffffffffffffffffffffffffffffffffffff1673ffffffffffffffffffffffffffffffffffffffff16815260200190815260200160002060008373ffffffffffffffffffffffffffffffffffffffff1673ffffffffffffffffffffffffffffffffffffffff168152602001908152602001600020905060008160000154111561065657612710670de0b6b3a7640000600360008573ffffffffffffffffffffffffffffffffffffffff1673ffffffffffffffffffffffffffffffffffffffff16815260200190815260200160002060000154600760008673ffffffffffffffffffffffffffffffffffffffff1673ffffffffffffffffffffffffffffffffffffffff16815260200190815260200160002054846000015461062a9190612a45565b6106349190612a45565b61063e9190612ab6565b6106489190612ab6565b856106539190612ae7565b94505b5050808061066390612b1b565b9150506104c0565b5060005b60028110156107c05760008082146106a957600260009054906101000a900473ffffffffffffffffffffffffffffffffffffffff166106ac565b60005b90506000600460008973ffffffffffffffffffffffffffffffffffffffff1673ffffffffffffffffffffffffffffffffffffffff16815260200190815260200160002060008373ffffffffffffffffffffffffffffffffffffffff1673ffffffffffffffffffffffffffffffffffffffff16815260200190815260200160002090506000816001015411156107ab57670de0b6b3a7640000600760008473ffffffffffffffffffffffffffffffffffffffff1673ffffffffffffffffffffffffffffffffffffffff1681526020019081526020016000205482600101546107939190612a45565b61079d9190612ab6565b846107a89190612ae7565b93505b505080806107b890612b1b565b91505061066f565b508082116107d35760009250505061090e565b6000600760008673ffffffffffffffffffffffffffffffffffffffff1673ffffffffffffffffffffffffffffffffffffffff16815260200190815260200160002054670de0b6b3a7640000838561082a9190612b63565b6108349190612a45565b61083e9190612ab6565b905060008073ffffffffffffffffffffffffffffffffffffffff168673ffffffffffffffffffffffffffffffffffffffff16146108f4578573ffffffffffffffffffffffffffffffffffffffff166370a08231306040518263ffffffff1660e01b81526004016108ae91906129a8565b602060405180830381865afa1580156108cb573d6000803e3d6000fd5b505050506040513d601f19601f820116820180604052508101906108ef9190612bac565b6108f6565b475b90508082106109055780610907565b815b9450505050505b92915050565b61091c612468565b612328851115610961576040517f08c379a000000000000000000000000000000000000000000000000000000000815260040161095890612c36565b60405180910390fd5b8484116109a3576040517f08c379a000000000000000000000000000000000000000000000000000000000815260040161099a90612ca2565b60405180910390fd5b6103e88311156109e8576040517f08c379a00000000000000000000000000000000000000000000000000000000081526004016109df90612d0e565b60405180910390fd5b6040518060c0016040528086815260200185815260200184815260200183815260200182815260200160011515815250600360008873ffffffffffffffffffffffffffffffffffffffff1673ffffffffffffffffffffffffffffffffffffffff168152602001908152602001600020600082015181600001556020820151816001015560408201518160020155606082015181600301556080820151816004015560a08201518160050160006101000a81548160ff0219169083151502179055509050508573ffffffffffffffffffffffffffffffffffffffff167f16b940d322e6fdbf90e85acbdf71d2a22ccc6bdea8367c83749ef2bead5d359c868686604051610af69392919061285e565b60405180910390a2505050505050565b6004602052816000526040600020602052806000526040600020600091509150508060000154908060010154908060020154905083565b610b456124e6565b610b4d612535565b600360008373ffffffffffffffffffffffffffffffffffffffff1673ffffffffffffffffffffffffffffffffffffffff16815260200190815260200160002060050160009054906101000a900460ff16610bdc576040517f08c379a0000000000000000000000000000000000000000000000000000000008152600401610bd390612d7a565b60405180910390fd5b600073ffffffffffffffffffffffffffffffffffffffff168273ffffffffffffffffffffffffffffffffffffffff1603610c5b5760003411610c53576040517f08c379a0000000000000000000000000000000000000000000000000000000008152600401610c4a90612de6565b60405180910390fd5b349050610da1565b60008111610c9e576040517f08c379a0000000000000000000000000000000000000000000000000000000008152600401610c9590612de6565b60405180910390fd5b60003414610ce1576040517f08c379a0000000000000000000000000000000000000000000000000000000008152600401610cd890612e78565b60405180910390fd5b8173ffffffffffffffffffffffffffffffffffffffff166323b872dd3330846040518463ffffffff1660e01b8152600401610d1e93929190612e98565b6020604051808303816000875af1158015610d3d573d6000803e3d6000fd5b505050506040513d601f19601f82011682018060405250810190610d619190612efb565b610da0576040517f08c379a0000000000000000000000000000000000000000000000000000000008152600401610d9790612f74565b60405180910390fd5b5b6000600460003373ffffffffffffffffffffffffffffffffffffffff1673ffffffffffffffffffffffffffffffffffffffff16815260200190815260200160002060008473ffffffffffffffffffffffffffffffffffffffff1673ffffffffffffffffffffffffffffffffffffffff168152602001908152602001600020905081816000016000828254610e359190612ae7565b9250508190555081600560008573ffffffffffffffffffffffffffffffffffffffff1673ffffffffffffffffffffffffffffffffffffffff1681526020019081526020016000206000828254610e8b9190612ae7565b925050819055508273ffffffffffffffffffffffffffffffffffffffff163373ffffffffffffffffffffffffffffffffffffffff167f5548c837ab068cf56a2c2479df0882a4922fd203edb7517321831d95078c5f6284604051610eef919061278a565b60405180910390a350610f0061257f565b5050565b610f0c6124e6565b610f14612535565b60008111610f57576040517f08c379a0000000000000000000000000000000000000000000000000000000008152600401610f4e90612de6565b60405180910390fd5b600360008373ffffffffffffffffffffffffffffffffffffffff1673ffffffffffffffffffffffffffffffffffffffff16815260200190815260200160002060050160009054906101000a900460ff16610fe6576040517f08c379a0000000000000000000000000000000000000000000000000000000008152600401610fdd90612d7a565b60405180910390fd5b6000610ff233846104b5565b905080821115611037576040517f08c379a000000000000000000000000000000000000000000000000000000000815260040161102e90612fe0565b60405180910390fd5b6000600460003373ffffffffffffffffffffffffffffffffffffffff1673ffffffffffffffffffffffffffffffffffffffff16815260200190815260200160002060008573ffffffffffffffffffffffffffffffffffffffff1673ffffffffffffffffffffffffffffffffffffffff1681526020019081526020016000209050828160010160008282546110cb9190612ae7565b9250508190555082600660008673ffffffffffffffffffffffffffffffffffffffff1673ffffffffffffffffffffffffffffffffffffffff16815260200190815260200160002060008282546111219190612ae7565b92505081905550600073ffffffffffffffffffffffffffffffffffffffff168473ffffffffffffffffffffffffffffffffffffffff16036111a8573373ffffffffffffffffffffffffffffffffffffffff166108fc849081150290604051600060405180830381858888f193505050501580156111a2573d6000803e3d6000fd5b50611266565b8373ffffffffffffffffffffffffffffffffffffffff1663a9059cbb33856040518363ffffffff1660e01b81526004016111e3929190613000565b6020604051808303816000875af1158015611202573d6000803e3d6000fd5b505050506040513d601f19601f820116820180604052508101906112269190612efb565b611265576040517f08c379a000000000000000000000000000000000000000000000000000000000815260040161125c90612f74565b60405180910390fd5b5b8373ffffffffffffffffffffffffffffffffffffffff163373ffffffffffffffffffffffffffffffffffffffff167f312a5e5e1079f5dda4e95dbbd0b908b291fd5b992ef22073643ab691572c5b52856040516112c3919061278a565b60405180910390a350506112d561257f565b5050565b6112e1612468565b8173ffffffffffffffffffffffffffffffffffffffff167fb556fac599c3c70efb9ab1fa725ecace6c81cc48d1455f886607def065f3e0c0600760008573ffffffffffffffffffffffffffffffffffffffff1673ffffffffffffffffffffffffffffffffffffffff1681526020019081526020016000205483604051611368929190613029565b60405180910390a280600760008473ffffffffffffffffffffffffffffffffffffffff1673ffffffffffffffffffffffffffffffffffffffff168152602001908152602001600020819055505050565b6000600160009054906101000a900460ff16905090565b60076020528060005260406000206000915090505481565b6113ef612468565b6113f96000612589565b565b60036020528060005260406000206000915090508060000154908060010154908060020154908060030154908060040154908060050160009054906101000a900460ff16905086565b60066020528060005260406000206000915090505481565b600060018054906101000a900473ffffffffffffffffffffffffffffffffffffffff16905090565b60056020528060005260406000206000915090505481565b6114a46124e6565b6114ac612535565b600034116114ef576040517f08c379a00000000000000000000000000000000000000000000000000000000081526004016114e69061309e565b60405180910390fd5b6000600460003373ffffffffffffffffffffffffffffffffffffffff1673ffffffffffffffffffffffffffffffffffffffff16815260200190815260200160002060008373ffffffffffffffffffffffffffffffffffffffff1673ffffffffffffffffffffffffffffffffffffffff168152602001908152602001600020905060008160010154116115b6576040517f08c379a00000000000000000000000000000000000000000000000000000000081526004016115ad9061310a565b60405180910390fd5b600034905081600101548111156115cf57816001015490505b808260010160008282546115e39190612b63565b9250508190555080600660008573ffffffffffffffffffffffffffffffffffffffff1673ffffffffffffffffffffffffffffffffffffffff16815260200190815260200160002060008282546116399190612b63565b925050819055508273ffffffffffffffffffffffffffffffffffffffff163373ffffffffffffffffffffffffffffffffffffffff167f05f2eeda0e08e4b437f487c8d7d29b14537d15e3488170dc3de5dbdf8dac46848360405161169d919061278a565b60405180910390a350506116af61257f565b50565b6116ba6124e6565b6116c2612535565b670de0b6b3a76400006116d484612101565b10611714576040517f08c379a000000000000000000000000000000000000000000000000000000000815260040161170b90613176565b60405180910390fd5b6000600460008573ffffffffffffffffffffffffffffffffffffffff1673ffffffffffffffffffffffffffffffffffffffff16815260200190815260200160002060008473ffffffffffffffffffffffffffffffffffffffff1673ffffffffffffffffffffffffffffffffffffffff16815260200190815260200160002090506000600460008673ffffffffffffffffffffffffffffffffffffffff1673ffffffffffffffffffffffffffffffffffffffff16815260200190815260200160002060008473ffffffffffffffffffffffffffffffffffffffff1673ffffffffffffffffffffffffffffffffffffffff1681526020019081526020016000209050600082600001541161185b576040517f08c379a0000000000000000000000000000000000000000000000000000000008152600401611852906131e2565b60405180910390fd5b60008160010154116118a2576040517f08c379a00000000000000000000000000000000000000000000000000000000081526004016118999061310a565b60405180910390fd5b6000826000015490506000826001015490506000612710600360008973ffffffffffffffffffffffffffffffffffffffff1673ffffffffffffffffffffffffffffffffffffffff16815260200190815260200160002060020154846119079190612a45565b6119119190612ab6565b9050600073ffffffffffffffffffffffffffffffffffffffff168673ffffffffffffffffffffffffffffffffffffffff160361198e57813414611989576040517f08c379a00000000000000000000000000000000000000000000000000000000081526004016119809061324e565b60405180910390fd5b611a4e565b8573ffffffffffffffffffffffffffffffffffffffff166323b872dd3330856040518463ffffffff1660e01b81526004016119cb93929190612e98565b6020604051808303816000875af11580156119ea573d6000803e3d6000fd5b505050506040513d601f19601f82011682018060405250810190611a0e9190612efb565b611a4d576040517f08c379a0000000000000000000000000000000000000000000000000000000008152600401611a44906132ba565b60405180910390fd5b5b600085600001819055506000846001018190555082600560008973ffffffffffffffffffffffffffffffffffffffff1673ffffffffffffffffffffffffffffffffffffffff1681526020019081526020016000206000828254611ab19190612b63565b9250508190555081600660008873ffffffffffffffffffffffffffffffffffffffff1673ffffffffffffffffffffffffffffffffffffffff1681526020019081526020016000206000828254611b079190612b63565b92505081905550600073ffffffffffffffffffffffffffffffffffffffff168773ffffffffffffffffffffffffffffffffffffffff1603611b99573373ffffffffffffffffffffffffffffffffffffffff166108fc8285611b689190612ae7565b9081150290604051600060405180830381858888f19350505050158015611b93573d6000803e3d6000fd5b50611c62565b8673ffffffffffffffffffffffffffffffffffffffff1663a9059cbb338386611bc29190612ae7565b6040518363ffffffff1660e01b8152600401611bdf929190613000565b6020604051808303816000875af1158015611bfe573d6000803e3d6000fd5b505050506040513d601f19601f82011682018060405250810190611c229190612efb565b611c61576040517f08c379a0000000000000000000000000000000000000000000000000000000008152600401611c5890612f74565b60405180910390fd5b5b8573ffffffffffffffffffffffffffffffffffffffff168773ffffffffffffffffffffffffffffffffffffffff168973ffffffffffffffffffffffffffffffffffffffff167f033fe6dadd06de536cd7b34266e12610e9d77a23d48d3d6218962a87cb74051486604051611cd6919061278a565b60405180910390a45050505050611ceb61257f565b505050565b611cf8612468565b600073ffffffffffffffffffffffffffffffffffffffff168173ffffffffffffffffffffffffffffffffffffffff1603611d67576040517f08c379a0000000000000000000000000000000000000000000000000000000008152600401611d5e9061334c565b60405180910390fd5b611d7081612589565b50565b611d7b6124e6565b611d83612535565b60008111611dc6576040517f08c379a0000000000000000000000000000000000000000000000000000000008152600401611dbd90612de6565b60405180910390fd5b6000600460003373ffffffffffffffffffffffffffffffffffffffff1673ffffffffffffffffffffffffffffffffffffffff16815260200190815260200160002060008473ffffffffffffffffffffffffffffffffffffffff1673ffffffffffffffffffffffffffffffffffffffff16815260200190815260200160002090508181600001541015611e8d576040517f08c379a0000000000000000000000000000000000000000000000000000000008152600401611e84906133b8565b60405180910390fd5b670de0b6b3a7640000611e9f33612101565b1015611ee0576040517f08c379a0000000000000000000000000000000000000000000000000000000008152600401611ed790613424565b60405180910390fd5b81816000016000828254611ef49190612b63565b9250508190555081600560008573ffffffffffffffffffffffffffffffffffffffff1673ffffffffffffffffffffffffffffffffffffffff1681526020019081526020016000206000828254611f4a9190612b63565b92505081905550600073ffffffffffffffffffffffffffffffffffffffff168373ffffffffffffffffffffffffffffffffffffffff1603611fd1573373ffffffffffffffffffffffffffffffffffffffff166108fc839081150290604051600060405180830381858888f19350505050158015611fcb573d6000803e3d6000fd5b5061208f565b8273ffffffffffffffffffffffffffffffffffffffff1663a9059cbb33846040518363ffffffff1660e01b815260040161200c929190613000565b6020604051808303816000875af115801561202b573d6000803e3d6000fd5b505050506040513d601f19601f8201168201806040525081019061204f9190612efb565b61208e576040517f08c379a000000000000000000000000000000000000000000000000000000000815260040161208590612f74565b60405180910390fd5b5b8273ffffffffffffffffffffffffffffffffffffffff163373ffffffffffffffffffffffffffffffffffffffff167f9b1bfa7fa9ee420a16e124f794c35ac9f90472acc99140eb2f6447c714cad8eb846040516120ec919061278a565b60405180910390a3506120fd61257f565b5050565b600080600090506000805b60028110156122b757600080821461214657600260009054906101000a900473ffffffffffffffffffffffffffffffffffffffff16612149565b60005b90506000600460008873ffffffffffffffffffffffffffffffffffffffff1673ffffffffffffffffffffffffffffffffffffffff16815260200190815260200160002060008373ffffffffffffffffffffffffffffffffffffffff1673ffffffffffffffffffffffffffffffffffffffff16815260200190815260200160002090506000816000015411156122a257612710670de0b6b3a7640000600360008573ffffffffffffffffffffffffffffffffffffffff1673ffffffffffffffffffffffffffffffffffffffff16815260200190815260200160002060010154600760008673ffffffffffffffffffffffffffffffffffffffff1673ffffffffffffffffffffffffffffffffffffffff1681526020019081526020016000205484600001546122769190612a45565b6122809190612a45565b61228a9190612ab6565b6122949190612ab6565b8561229f9190612ae7565b94505b505080806122af90612b1b565b91505061210c565b5060005b600281101561240c5760008082146122f557600260009054906101000a900473ffffffffffffffffffffffffffffffffffffffff166122f8565b60005b90506000600460008873ffffffffffffffffffffffffffffffffffffffff1673ffffffffffffffffffffffffffffffffffffffff16815260200190815260200160002060008373ffffffffffffffffffffffffffffffffffffffff1673ffffffffffffffffffffffffffffffffffffffff16815260200190815260200160002090506000816001015411156123f757670de0b6b3a7640000600760008473ffffffffffffffffffffffffffffffffffffffff1673ffffffffffffffffffffffffffffffffffffffff1681526020019081526020016000205482600101546123df9190612a45565b6123e99190612ab6565b846123f49190612ae7565b93505b5050808061240490612b1b565b9150506122bb565b506000810361243f577fffffffffffffffffffffffffffffffffffffffffffffffffffffffffffffffff92505050612463565b80670de0b6b3a7640000836124549190612a45565b61245e9190612ab6565b925050505b919050565b61247061264c565b73ffffffffffffffffffffffffffffffffffffffff1661248e61145c565b73ffffffffffffffffffffffffffffffffffffffff16146124e4576040517f08c379a00000000000000000000000000000000000000000000000000000000081526004016124db90613490565b60405180910390fd5b565b60026000540361252b576040517f08c379a0000000000000000000000000000000000000000000000000000000008152600401612522906134fc565b60405180910390fd5b6002600081905550565b61253d6113b8565b1561257d576040517f08c379a000000000000000000000000000000000000000000000000000000000815260040161257490613568565b60405180910390fd5b565b6001600081905550565b600060018054906101000a900473ffffffffffffffffffffffffffffffffffffffff169050816001806101000a81548173ffffffffffffffffffffffffffffffffffffffff021916908373ffffffffffffffffffffffffffffffffffffffff1602179055508173ffffffffffffffffffffffffffffffffffffffff168173ffffffffffffffffffffffffffffffffffffffff167f8be0079c531659141344cd1fd0a4f28419497f9722a3daafe3b4186f6b6457e060405160405180910390a35050565b600033905090565b600073ffffffffffffffffffffffffffffffffffffffff82169050919050565b6000819050919050565b600061269961269461268f84612654565b612674565b612654565b9050919050565b60006126ab8261267e565b9050919050565b60006126bd826126a0565b9050919050565b6126cd816126b2565b82525050565b60006020820190506126e860008301846126c4565b92915050565b600080fd5b60006126fe82612654565b9050919050565b61270e816126f3565b811461271957600080fd5b50565b60008135905061272b81612705565b92915050565b60008060408385031215612748576127476126ee565b5b60006127568582860161271c565b92505060206127678582860161271c565b9150509250929050565b6000819050919050565b61278481612771565b82525050565b600060208201905061279f600083018461277b565b92915050565b6127ae81612771565b81146127b957600080fd5b50565b6000813590506127cb816127a5565b92915050565b60008060008060008060c087890312156127ee576127ed6126ee565b5b60006127fc89828a0161271c565b965050602061280d89828a016127bc565b955050604061281e89828a016127bc565b945050606061282f89828a016127bc565b935050608061284089828a016127bc565b92505060a061285189828a016127bc565b9150509295509295509295565b6000606082019050612873600083018661277b565b612880602083018561277b565b61288d604083018461277b565b949350505050565b600080604083850312156128ac576128ab6126ee565b5b60006128ba8582860161271c565b92505060206128cb858286016127bc565b9150509250929050565b60008115159050919050565b6128ea816128d5565b82525050565b600060208201905061290560008301846128e1565b92915050565b600060208284031215612921576129206126ee565b5b600061292f8482850161271c565b91505092915050565b600060c08201905061294d600083018961277b565b61295a602083018861277b565b612967604083018761277b565b612974606083018661277b565b612981608083018561277b565b61298e60a08301846128e1565b979650505050505050565b6129a2816126f3565b82525050565b60006020820190506129bd6000830184612999565b92915050565b6000806000606084860312156129dc576129db6126ee565b5b60006129ea8682870161271c565b93505060206129fb8682870161271c565b9250506040612a0c8682870161271c565b9150509250925092565b7f4e487b7100000000000000000000000000000000000000000000000000000000600052601160045260246000fd5b6000612a5082612771565b9150612a5b83612771565b9250828202612a6981612771565b91508282048414831517612a8057612a7f612a16565b5b5092915050565b7f4e487b7100000000000000000000000000000000000000000000000000000000600052601260045260246000fd5b6000612ac182612771565b9150612acc83612771565b925082612adc57612adb612a87565b5b828204905092915050565b6000612af282612771565b9150612afd83612771565b9250828201905080821115612b1557612b14612a16565b5b92915050565b6000612b2682612771565b91507fffffffffffffffffffffffffffffffffffffffffffffffffffffffffffffffff8203612b5857612b57612a16565b5b600182019050919050565b6000612b6e82612771565b9150612b7983612771565b9250828203905081811115612b9157612b90612a16565b5b92915050565b600081519050612ba6816127a5565b92915050565b600060208284031215612bc257612bc16126ee565b5b6000612bd084828501612b97565b91505092915050565b600082825260208201905092915050565b7f4c545620746f6f20686967680000000000000000000000000000000000000000600082015250565b6000612c20600c83612bd9565b9150612c2b82612bea565b602082019050919050565b60006020820190508181036000830152612c4f81612c13565b9050919050565b7f496e76616c6964206c69717569646174696f6e207468726573686f6c64000000600082015250565b6000612c8c601d83612bd9565b9150612c9782612c56565b602082019050919050565b60006020820190508181036000830152612cbb81612c7f565b9050919050565b7f426f6e757320746f6f2068696768000000000000000000000000000000000000600082015250565b6000612cf8600e83612bd9565b9150612d0382612cc2565b602082019050919050565b60006020820190508181036000830152612d2781612ceb565b9050919050565b7f4173736574206e6f742061637469766500000000000000000000000000000000600082015250565b6000612d64601083612bd9565b9150612d6f82612d2e565b602082019050919050565b60006020820190508181036000830152612d9381612d57565b9050919050565b7f416d6f756e74206d757374206265203e20300000000000000000000000000000600082015250565b6000612dd0601283612bd9565b9150612ddb82612d9a565b602082019050919050565b60006020820190508181036000830152612dff81612dc3565b9050919050565b7f446f206e6f742073656e6420455448207768656e206465706f736974696e672060008201527f4552433230000000000000000000000000000000000000000000000000000000602082015250565b6000612e62602583612bd9565b9150612e6d82612e06565b604082019050919050565b60006020820190508181036000830152612e9181612e55565b9050919050565b6000606082019050612ead6000830186612999565b612eba6020830185612999565b612ec7604083018461277b565b949350505050565b612ed8816128d5565b8114612ee357600080fd5b50565b600081519050612ef581612ecf565b92915050565b600060208284031215612f1157612f106126ee565b5b6000612f1f84828501612ee6565b91505092915050565b7f5472616e73666572206661696c65640000000000000000000000000000000000600082015250565b6000612f5e600f83612bd9565b9150612f6982612f28565b602082019050919050565b60006020820190508181036000830152612f8d81612f51565b9050919050565b7f4578636565647320626f72726f77206c696d6974000000000000000000000000600082015250565b6000612fca601483612bd9565b9150612fd582612f94565b602082019050919050565b60006020820190508181036000830152612ff981612fbd565b9050919050565b60006040820190506130156000830185612999565b613022602083018461277b565b9392505050565b600060408201905061303e600083018561277b565b61304b602083018461277b565b9392505050565b7f4e6f2076616c75652073656e7400000000000000000000000000000000000000600082015250565b6000613088600d83612bd9565b915061309382613052565b602082019050919050565b600060208201905081810360008301526130b78161307b565b9050919050565b7f4e6f206465627400000000000000000000000000000000000000000000000000600082015250565b60006130f4600783612bd9565b91506130ff826130be565b602082019050919050565b60006020820190508181036000830152613123816130e7565b9050919050565b7f55736572206973206865616c7468790000000000000000000000000000000000600082015250565b6000613160600f83612bd9565b915061316b8261312a565b602082019050919050565b6000602082019050818103600083015261318f81613153565b9050919050565b7f4e6f20636f6c6c61746572616c00000000000000000000000000000000000000600082015250565b60006131cc600d83612bd9565b91506131d782613196565b602082019050919050565b600060208201905081810360008301526131fb816131bf565b9050919050565b7f455448207265706179206d69736d617463680000000000000000000000000000600082015250565b6000613238601283612bd9565b915061324382613202565b602082019050919050565b600060208201905081810360008301526132678161322b565b9050919050565b7f5265706179206661696c65640000000000000000000000000000000000000000600082015250565b60006132a4600c83612bd9565b91506132af8261326e565b602082019050919050565b600060208201905081810360008301526132d381613297565b9050919050565b7f4f776e61626c653a206e6577206f776e657220697320746865207a65726f206160008201527f6464726573730000000000000000000000000000000000000000000000000000602082015250565b6000613336602683612bd9565b9150613341826132da565b604082019050919050565b6000602082019050818103600083015261336581613329565b9050919050565b7f496e73756666696369656e7420636f6c6c61746572616c000000000000000000600082015250565b60006133a2601783612bd9565b91506133ad8261336c565b602082019050919050565b600060208201905081810360008301526133d181613395565b9050919050565b7f4865616c746820666163746f7220746f6f206c6f770000000000000000000000600082015250565b600061340e601583612bd9565b9150613419826133d8565b602082019050919050565b6000602082019050818103600083015261343d81613401565b9050919050565b7f4f776e61626c653a2063616c6c6572206973206e6f7420746865206f776e6572600082015250565b600061347a602083612bd9565b915061348582613444565b602082019050919050565b600060208201905081810360008301526134a98161346d565b9050919050565b7f5265656e7472616e637947756172643a207265656e7472616e742063616c6c00600082015250565b60006134e6601f83612bd9565b91506134f1826134b0565b602082019050919050565b60006020820190508181036000830152613515816134d9565b9050919050565b7f5061757361626c653a2070617573656400000000000000000000000000000000600082015250565b6000613552601083612bd9565b915061355d8261351c565b602082019050919050565b6000602082019050818103600083015261358181613545565b905091905056fea2646970667358221220e7bd2e094ae46ee5812928cacbeadc958c84804ed101e32b9ef9f1eeea09e33864736f6c63430008140033",
  "linkReferences": {},
  "deployedLinkReferences": {}
}