{
  "_format": "hh-sol-artifact-1",
  "contractName": "LendingPool",
  "sourceName": "contracts/LendingPool.sol",
  "abi": [
    {
      "inputs": [
        {
          "internalType": "address",
          "name": "_bpToken",
          "type": "address"
        }
      ],
      "stateMutability": "nonpayable",
      "type": "constructor"
    },
    {
      "anonymous": false,
      "inputs": [
        {
          "indexed": true,
          "internalType": "address",
          "name": "asset",
          "type": "address"
        },
        {
          "indexed": false,
          "internalType": "uint256",
          "name": "ltv",
          "type": "uint256"
        },
        {
          "indexed": false,
          "internalType": "uint256",
          "name": "liquidationThreshold",
          "type": "uint256"
        },
        {
          "indexed": false,
          "internalType": "uint256",
          "name": "liquidationBonus",
          "type": "uint256"
        }
      ],
      "name": "AssetConfigUpdated",
      "type": "event"
    },
    {
      "anonymous": false,
      "inputs": [
        {
          "indexed": true,
          "internalType": "address",
          "name": "user",
          "type": "address"
        },
        {
          "indexed": true,
          "internalType": "address",
          "name": "asset",
          "type": "address"
        },
        {
          "indexed": false,
          "internalType": "uint256",
          "name": "amount",
          "type": "uint256"
        }
      ],
      "name": "Borrow",
      "type": "event"
    },
    {
      "anonymous": false,
      "inputs": [
        {
          "indexed": true,
          "internalType": "address",
          "name": "user",
          "type": "address"
        },
        {
          "indexed": true,
          "internalType": "address",
          "name": "asset",
          "type": "address"
        },
        {
          "indexed": false,
          "internalType": "uint256",
          "name": "amount",
          "type": "uint256"
        }
      ],
      "name": "Deposit",
      "type": "event"
    },
    {
      "anonymous": false,
      "inputs": [
        {
          "indexed": true,
          "internalType": "address",
          "name": "user",
          "type": "address"
        },
        {
          "indexed": true,
          "internalType": "address",
          "name": "asset",
          "type": "address"
        },
        {
          "indexed": true,
          "internalType": "address",
          "name": "liquidator",
          "type": "address"
        },
        {
          "indexed": false,
          "internalType": "uint256",
          "name": "amount",
          "type": "uint256"
        }
      ],
      "name": "Liquidate",
      "type": "event"
    },
    {
      "anonymous": false,
      "inputs": [
        {
          "indexed": true,
          "internalType": "address",
          "name": "previousOwner",
          "type": "address"
        },
        {
          "indexed": true,
          "internalType": "address",
          "name": "newOwner",
          "type": "address"
        }
      ],
      "name": "OwnershipTransferred",
      "type": "event"
    },
    {
      "anonymous": false,
      "inputs": [
        {
          "indexed": false,
          "internalType": "address",
          "name": "account",
          "type": "address"
        }
      ],
      "name": "Paused",
      "type": "event"
    },
    {
      "anonymous": false,
      "inputs": [
        {
          "indexed": true,
          "internalType": "address",
          "name": "asset",
          "type": "address"
        },
        {
          "indexed": false,
          "internalType": "uint256",
          "name": "oldPrice",
          "type": "uint256"
        },
        {
          "indexed": false,
          "internalType": "uint256",
          "name": "newPrice",
          "type": "uint256"
        }
      ],
      "name": "PriceUpdated",
      "type": "event"
    },
    {
      "anonymous": false,
      "inputs": [
        {
          "indexed": true,
          "internalType": "address",
          "name": "user",
          "type": "address"
        },
        {
          "indexed": true,
          "internalType": "address",
          "name": "asset",
          "type": "address"
        },
        {
          "indexed": false,
          "internalType": "uint256",
          "name": "amount",
          "type": "uint256"
        }
      ],
      "name": "Repay",
      "type": "event"
    },
    {
      "anonymous": false,
      "inputs": [
        {
          "indexed": false,
          "internalType": "address",
          "name": "account",
          "type": "address"
        }
      ],
      "name": "Unpaused",
      "type": "event"
    },
    {
      "anonymous": false,
      "inputs": [
        {
          "indexed": true,
          "internalType": "address",
          "name": "user",
          "type": "address"
        },
        {
          "indexed": true,
          "internalType": "address",
          "name": "asset",
          "type": "address"
        },
        {
          "indexed": false,
          "internalType": "uint256",
          "name": "amount",
          "type": "uint256"
        }
      ],
      "name": "Withdraw",
      "type": "event"
    },
    {
      "inputs": [
        {
          "internalType": "address",
          "name": "",
          "type": "address"
        }
      ],
      "name": "assetConfigs",
      "outputs": [
        {
          "internalType": "uint256",
          "name": "ltv",
          "type": "uint256"
        },
        {
          "internalType": "uint256",
          "name": "liquidationThreshold",
          "type": "uint256"
        },
        {
          "internalType": "uint256",
          "name": "liquidationBonus",
          "type": "uint256"
        },
        {
          "internalType": "uint256",
          "name": "borrowRate",
          "type": "uint256"
        },
        {
          "internalType": "uint256",
          "name": "depositRate",
          "type": "uint256"
        },
        {
          "internalType": "bool",
          "name": "isActive",
          "type": "bool"
        }
      ],
      "stateMutability": "view",
      "type": "function"
    },
    {
      "inputs": [
        {
          "internalType": "address",
          "name": "",
          "type": "address"
        }
      ],
      "name": "assetPrices",
      "outputs": [
        {
          "internalType": "uint256",
          "name": "",
          "type": "uint256"
        }
      ],
      "stateMutability": "view",
      "type": "function"
    },
    {
      "inputs": [
        {
          "internalType": "address",
          "name": "asset",
          "type": "address"
        },
        {
          "internalType": "uint256",
          "name": "amount",
          "type": "uint256"
        }
      ],
      "name": "borrow",
      "outputs": [],
      "stateMutability": "nonpayable",
      "type": "function"
    },
    {
      "inputs": [],
      "name": "bpToken",
      "outputs": [
        {
          "internalType": "contract MyToken",
          "name": "",
          "type": "address"
        }
      ],
      "stateMutability": "view",
      "type": "function"
    },
    {
      "inputs": [
        {
          "internalType": "address",
          "name": "asset",
          "type": "address"
        },
        {
          "internalType": "uint256",
          "name": "amount",
          "type": "uint256"
        }
      ],
      "name": "deposit",
      "outputs": [],
      "stateMutability": "payable",
      "type": "function"
    },
    {
      "inputs": [
        {
          "internalType": "address",
          "name": "user",
          "type": "address"
        },
        {
          "internalType": "address",
          "name": "asset",
          "type": "address"
        }
      ],
      "name": "getBorrowableAmount",
      "outputs": [
        {
          "internalType": "uint256",
          "name": "",
          "type": "uint256"
        }
      ],
      "stateMutability": "view",
      "type": "function"
    },
    {
      "inputs": [
        {
          "internalType": "address",
          "name": "user",
          "type": "address"
        }
      ],
      "name": "getHealthFactor",
      "outputs": [
        {
          "internalType": "uint256",
          "name": "",
          "type": "uint256"
        }
      ],
      "stateMutability": "view",
      "type": "function"
    },
    {
      "inputs": [
        {
          "internalType": "address",
          "name": "user",
          "type": "address"
        },
        {
          "internalType": "address",
          "name": "collateralAsset",
          "type": "address"
        },
        {
          "internalType": "address",
          "name": "debtAsset",
          "type": "address"
        }
      ],
      "name": "liquidate",
      "outputs": [],
      "stateMutability": "nonpayable",
      "type": "function"
    },
    {
      "inputs": [],
      "name": "owner",
      "outputs": [
        {
          "internalType": "address",
          "name": "",
          "type": "address"
        }
      ],
      "stateMutability": "view",
      "type": "function"
    },
    {
      "inputs": [],
      "name": "paused",
      "outputs": [
        {
          "internalType": "bool",
          "name": "",
          "type": "bool"
        }
      ],
      "stateMutability": "view",
      "type": "function"
    },
    {
      "inputs": [],
      "name": "renounceOwnership",
      "outputs": [],
      "stateMutability": "nonpayable",
      "type": "function"
    },
    {
      "inputs": [
        {
          "internalType": "address",
          "name": "asset",
          "type": "address"
        }
      ],
      "name": "repay",
      "outputs": [],
      "stateMutability": "payable",
      "type": "function"
    },
    {
      "inputs": [
        {
          "internalType": "address",
          "name": "asset",
          "type": "address"
        },
        {
          "internalType": "uint256",
          "name": "ltv",
          "type": "uint256"
        },
        {
          "internalType": "uint256",
          "name": "liquidationThreshold",
          "type": "uint256"
        },
        {
          "internalType": "uint256",
          "name": "liquidationBonus",
          "type": "uint256"
        },
        {
          "internalType": "uint256",
          "name": "borrowRate",
          "type": "uint256"
        },
        {
          "internalType": "uint256",
          "name": "depositRate",
          "type": "uint256"
        }
      ],
      "name": "setAssetConfig",
      "outputs": [],
      "stateMutability": "nonpayable",
      "type": "function"
    },
    {
      "inputs": [
        {
          "internalType": "address",
          "name": "asset",
          "type": "address"
        },
        {
          "internalType": "uint256",
          "name": "price",
          "type": "uint256"
        }
      ],
      "name": "setAssetPrice",
      "outputs": [],
      "stateMutability": "nonpayable",
      "type": "function"
    },
    {
      "inputs": [
        {
          "internalType": "address",
          "name": "",
          "type": "address"
        }
      ],
      "name": "totalBorrows",
      "outputs": [
        {
          "internalType": "uint256",
          "name": "",
          "type": "uint256"
        }
      ],
      "stateMutability": "view",
      "type": "function"
    },
    {
      "inputs": [
        {
          "internalType": "address",
          "name": "",
          "type": "address"
        }
      ],
      "name": "totalSupplies",
      "outputs": [
        {
          "internalType": "uint256",
          "name": "",
          "type": "uint256"
        }
      ],
      "stateMutability": "view",
      "type": "function"
    },
    {
      "inputs": [
        {
          "internalType": "address",
          "name": "newOwner",
          "type": "address"
        }
      ],
      "name": "transferOwnership",
      "outputs": [],
      "stateMutability": "nonpayable",
      "type": "function"
    },
    {
      "inputs": [
        {
          "internalType": "address",
          "name": "",
          "type": "address"
        },
        {
          "internalType": "address",
          "name": "",
          "type": "address"
        }
      ],
      "name": "userAssetStates",
      "outputs": [
        {
          "internalType": "uint256",
          "name": "collateral",
          "type": "uint256"
        },
        {
          "internalType": "uint256",
          "name": "debt",
          "type": "uint256"
        },
        {
          "internalType": "uint256",
          "name": "lastUpdateTime",
          "type": "uint256"
        }
      ],
      "stateMutability": "view",
      "type": "function"
    },
    {
      "inputs": [
        {
          "internalType": "address",
          "name": "asset",
          "type": "address"
        },
        {
          "internalType": "uint256",
          "name": "amount",
          "type": "uint256"
        }
      ],
      "name": "withdraw",
      "outputs": [],
      "stateMutability": "nonpayable",
      "type": "function"
    },
    {
      "stateMutability": "payable",
      "type": "receive"
    }
  ],
  "bytecode": "0x60806040523480156200001157600080fd5b50604051620038243803806200382483398181016040528101906200003791906200042a565b60016000819055506000600160006101000a81548160ff0219169083151502179055506200007a6200006e620002f560201b60201c565b620002fd60201b60201c565b80600260006101000a81548173ffffffffffffffffffffffffffffffffffffffff021916908373ffffffffffffffffffffffffffffffffffffffff1602179055506040518060c00160405280611f40815260200161203a81526020016101f481526020016101f4815260200161012c815260200160011515815250600360008073ffffffffffffffffffffffffffffffffffffffff1673ffffffffffffffffffffffffffffffffffffffff168152602001908152602001600020600082015181600001556020820151816001015560408201518160020155606082015181600301556080820151816004015560a08201518160050160006101000a81548160ff0219169083151502179055509050506040518060c00160405280611d4c8152602001611f4081526020016101f481526020016102588152602001610190815260200160011515815250600360008373ffffffffffffffffffffffffffffffffffffffff1673ffffffffffffffffffffffffffffffffffffffff168152602001908152602001600020600082015181600001556020820151816001015560408201518160020155606082015181600301556080820151816004015560a08201518160050160006101000a81548160ff021916908315150217905550905050670de0b6b3a7640000600760008073ffffffffffffffffffffffffffffffffffffffff1673ffffffffffffffffffffffffffffffffffffffff16815260200190815260200160002081905550662386f26fc10000600760008373ffffffffffffffffffffffffffffffffffffffff1673ffffffffffffffffffffffffffffffffffffffff16815260200190815260200160002081905550506200045c565b600033905090565b600060018054906101000a900473ffffffffffffffffffffffffffffffffffffffff169050816001806101000a81548173ffffffffffffffffffffffffffffffffffffffff021916908373ffffffffffffffffffffffffffffffffffffffff1602179055508173ffffffffffffffffffffffffffffffffffffffff168173ffffffffffffffffffffffffffffffffffffffff167f8be0079c531659141344cd1fd0a4f28419497f9722a3daafe3b4186f6b6457e060405160405180910390a35050565b600080fd5b600073ffffffffffffffffffffffffffffffffffffffff82169050919050565b6000620003f282620003c5565b9050919050565b6200040481620003e5565b81146200041057600080fd5b50565b6000815190506200042481620003f9565b92915050565b600060208284031215620004435762000442620003c0565b5b6000620004538482850162000413565b91505092915050565b6133b8806200046c6000396000f3fe6080604052600436106101185760003560e01c8063715018a6116100a05780639f7c73e9116100645780639f7c73e9146103c8578063ca5ce2ec146103e4578063f2fde38b1461040d578063f3fef3a314610436578063fe6bcd7c1461045f5761011f565b8063715018a6146102ca5780637609d7f6146102e15780638d730124146103235780638da5cb5b146103605780639782e8211461038b5761011f565b806347e7ef24116100e757806347e7ef24146101f45780634b8a35291461021057806351323f72146102395780635c975abb146102625780635e9a523c1461028d5761011f565b806323685b9714610124578063274ec5711461014f578063334df6d11461018c578063395ea961146101b55761011f565b3661011f57005b600080fd5b34801561013057600080fd5b5061013961049c565b60405161014691906125a5565b60405180910390f35b34801561015b57600080fd5b5061017660048036038101906101719190612603565b6104c2565b604051610183919061265c565b60405180910390f35b34801561019857600080fd5b506101b360048036038101906101ae91906126a3565b610921565b005b3480156101c157600080fd5b506101dc60048036038101906101d79190612603565b610b13565b6040516101eb93929190612730565b60405180910390f35b61020e60048036038101906102099190612767565b610b4a565b005b34801561021c57600080fd5b5061023760048036038101906102329190612767565b610f11565b005b34801561024557600080fd5b50610260600480360381019061025b9190612767565b6112e6565b005b34801561026e57600080fd5b506102776113c5565b60405161028491906127c2565b60405180910390f35b34801561029957600080fd5b506102b460048036038101906102af91906127dd565b6113dc565b6040516102c1919061265c565b60405180910390f35b3480156102d657600080fd5b506102df6113f4565b005b3480156102ed57600080fd5b50610308600480360381019061030391906127dd565b611408565b60405161031a9695949392919061280a565b60405180910390f35b34801561032f57600080fd5b5061034a600480360381019061034591906127dd565b611451565b604051610357919061265c565b60405180910390f35b34801561036c57600080fd5b50610375611469565b604051610382919061287a565b60405180910390f35b34801561039757600080fd5b506103b260048036038101906103ad91906127dd565b611491565b6040516103bf919061265c565b60405180910390f35b6103e260048036038101906103dd91906127dd565b6114a9565b005b3480156103f057600080fd5b5061040b60048036038101906104069190612895565b6116bf565b005b34801561041957600080fd5b50610434600480360381019061042f91906127dd565b611bc2565b005b34801561044257600080fd5b5061045d60048036038101906104589190612767565b611c45565b005b34801561046b57600080fd5b50610486600480360381019061048191906127dd565b611fd3565b604051610493919061265c565b60405180910390f35b600260009054906101000a900473ffffffffffffffffffffffffffffffffffffffff1681565b600080600090506000805b600281101561067857600080821461050757600260009054906101000a900473ffffffffffffffffffffffffffffffffffffffff1661050a565b60005b90506000600460008973ffffffffffffffffffffffffffffffffffffffff1673ffffffffffffffffffffffffffffffffffffffff16815260200190815260200160002060008373ffffffffffffffffffffffffffffffffffffffff1673ffffffffffffffffffffffffffffffffffffffff168152602001908152602001600020905060008160000154111561066357612710670de0b6b3a7640000600360008573ffffffffffffffffffffffffffffffffffffffff1673ffffffffffffffffffffffffffffffffffffffff16815260200190815260200160002060000154600760008673ffffffffffffffffffffffffffffffffffffffff1673ffffffffffffffffffffffffffffffffffffffff1681526020019081526020016000205484600001546106379190612917565b6106419190612917565b61064b9190612988565b6106559190612988565b8561066091906129b9565b94505b50508080610670906129ed565b9150506104cd565b5060005b60028110156107cd5760008082146106b657600260009054906101000a900473ffffffffffffffffffffffffffffffffffffffff166106b9565b60005b90506000600460008973ffffffffffffffffffffffffffffffffffffffff1673ffffffffffffffffffffffffffffffffffffffff16815260200190815260200160002060008373ffffffffffffffffffffffffffffffffffffffff1673ffffffffffffffffffffffffffffffffffffffff16815260200190815260200160002090506000816001015411156107b857670de0b6b3a7640000600760008473ffffffffffffffffffffffffffffffffffffffff1673ffffffffffffffffffffffffffffffffffffffff1681526020019081526020016000205482600101546107a09190612917565b6107aa9190612988565b846107b591906129b9565b93505b505080806107c5906129ed565b91505061067c565b508082116107e05760009250505061091b565b6000600760008673ffffffffffffffffffffffffffffffffffffffff1673ffffffffffffffffffffffffffffffffffffffff16815260200190815260200160002054670de0b6b3a764000083856108379190612a35565b6108419190612917565b61084b9190612988565b905060008073ffffffffffffffffffffffffffffffffffffffff168673ffffffffffffffffffffffffffffffffffffffff1614610901578573ffffffffffffffffffffffffffffffffffffffff166370a08231306040518263ffffffff1660e01b81526004016108bb919061287a565b602060405180830381865afa1580156108d8573d6000803e3d6000fd5b505050506040513d601f19601f820116820180604052508101906108fc9190612a7e565b610903565b475b90508082106109125780610914565b815b9450505050505b92915050565b61092961233a565b61232885111561096e576040517f08c379a000000000000000000000000000000000000000000000000000000000815260040161096590612b08565b60405180910390fd5b8484116109b0576040517f08c379a00000000000000000000000000000000000000000000000000000000081526004016109a790612b74565b60405180910390fd5b6103e88311156109f5576040517f08c379a00000000000000000000000000000000000000000000000000000000081526004016109ec90612be0565b60405180910390fd5b6040518060c0016040528086815260200185815260200184815260200183815260200182815260200160011515815250600360008873ffffffffffffffffffffffffffffffffffffffff1673ffffffffffffffffffffffffffffffffffffffff168152602001908152602001600020600082015181600001556020820151816001015560408201518160020155606082015181600301556080820151816004015560a08201518160050160006101000a81548160ff0219169083151502179055509050508573ffffffffffffffffffffffffffffffffffffffff167f16b940d322e6fdbf90e85acbdf71d2a22ccc6bdea8367c83749ef2bead5d359c868686604051610b0393929190612730565b60405180910390a2505050505050565b6004602052816000526040600020602052806000526040600020600091509150508060000154908060010154908060020154905083565b610b526123b8565b610b5a612407565b600360008373ffffffffffffffffffffffffffffffffffffffff1673ffffffffffffffffffffffffffffffffffffffff16815260200190815260200160002060050160009054906101000a900460ff16610be9576040517f08c379a0000000000000000000000000000000000000000000000000000000008152600401610be090612c4c565b60405180910390fd5b600073ffffffffffffffffffffffffffffffffffffffff168273ffffffffffffffffffffffffffffffffffffffff1603610c685760003411610c60576040517f08c379a0000000000000000000000000000000000000000000000000000000008152600401610c5790612cb8565b60405180910390fd5b349050610dae565b60008111610cab576040517f08c379a0000000000000000000000000000000000000000000000000000000008152600401610ca290612cb8565b60405180910390fd5b60003414610cee576040517f08c379a0000000000000000000000000000000000000000000000000000000008152600401610ce590612d4a565b60405180910390fd5b8173ffffffffffffffffffffffffffffffffffffffff166323b872dd3330846040518463ffffffff1660e01b8152600401610d2b93929190612d6a565b6020604051808303816000875af1158015610d4a573d6000803e3d6000fd5b505050506040513d601f19601f82011682018060405250810190610d6e9190612dcd565b610dad576040517f08c379a0000000000000000000000000000000000000000000000000000000008152600401610da490612e46565b60405180910390fd5b5b6000600460003373ffffffffffffffffffffffffffffffffffffffff1673ffffffffffffffffffffffffffffffffffffffff16815260200190815260200160002060008473ffffffffffffffffffffffffffffffffffffffff1673ffffffffffffffffffffffffffffffffffffffff168152602001908152602001600020905081816000016000828254610e4291906129b9565b9250508190555081600560008573ffffffffffffffffffffffffffffffffffffffff1673ffffffffffffffffffffffffffffffffffffffff1681526020019081526020016000206000828254610e9891906129b9565b925050819055508273ffffffffffffffffffffffffffffffffffffffff163373ffffffffffffffffffffffffffffffffffffffff167f5548c837ab068cf56a2c2479df0882a4922fd203edb7517321831d95078c5f6284604051610efc919061265c565b60405180910390a350610f0d612451565b5050565b610f196123b8565b610f21612407565b60008111610f64576040517f08c379a0000000000000000000000000000000000000000000000000000000008152600401610f5b90612cb8565b60405180910390fd5b600360008373ffffffffffffffffffffffffffffffffffffffff1673ffffffffffffffffffffffffffffffffffffffff16815260200190815260200160002060050160009054906101000a900460ff16610ff3576040517f08c379a0000000000000000000000000000000000000000000000000000000008152600401610fea90612c4c565b60405180910390fd5b6000610fff33846104c2565b905080821115611044576040517f08c379a000000000000000000000000000000000000000000000000000000000815260040161103b90612eb2565b60405180910390fd5b6000600460003373ffffffffffffffffffffffffffffffffffffffff1673ffffffffffffffffffffffffffffffffffffffff16815260200190815260200160002060008573ffffffffffffffffffffffffffffffffffffffff1673ffffffffffffffffffffffffffffffffffffffff1681526020019081526020016000209050828160010160008282546110d891906129b9565b9250508190555082600660008673ffffffffffffffffffffffffffffffffffffffff1673ffffffffffffffffffffffffffffffffffffffff168152602001908152602001600020600082825461112e91906129b9565b92505081905550600073ffffffffffffffffffffffffffffffffffffffff168473ffffffffffffffffffffffffffffffffffffffff16036111b5573373ffffffffffffffffffffffffffffffffffffffff166108fc849081150290604051600060405180830381858888f193505050501580156111af573d6000803e3d6000fd5b50611273565b8373ffffffffffffffffffffffffffffffffffffffff1663a9059cbb33856040518363ffffffff1660e01b81526004016111f0929190612ed2565b6020604051808303816000875af115801561120f573d6000803e3d6000fd5b505050506040513d601f19601f820116820180604052508101906112339190612dcd565b611272576040517f08c379a000000000000000000000000000000000000000000000000000000000815260040161126990612e46565b60405180910390fd5b5b8373ffffffffffffffffffffffffffffffffffffffff163373ffffffffffffffffffffffffffffffffffffffff167f312a5e5e1079f5dda4e95dbbd0b908b291fd5b992ef22073643ab691572c5b52856040516112d0919061265c565b60405180910390a350506112e2612451565b5050565b6112ee61233a565b8173ffffffffffffffffffffffffffffffffffffffff167fb556fac599c3c70efb9ab1fa725ecace6c81cc48d1455f886607def065f3e0c0600760008573ffffffffffffffffffffffffffffffffffffffff1673ffffffffffffffffffffffffffffffffffffffff1681526020019081526020016000205483604051611375929190612efb565b60405180910390a280600760008473ffffffffffffffffffffffffffffffffffffffff1673ffffffffffffffffffffffffffffffffffffffff168152602001908152602001600020819055505050565b6000600160009054906101000a900460ff16905090565b60076020528060005260406000206000915090505481565b6113fc61233a565b611406600061245b565b565b60036020528060005260406000206000915090508060000154908060010154908060020154908060030154908060040154908060050160009054906101000a900460ff16905086565b60066020528060005260406000206000915090505481565b600060018054906101000a900473ffffffffffffffffffffffffffffffffffffffff16905090565b60056020528060005260406000206000915090505481565b6114b16123b8565b6114b9612407565b600034116114fc576040517f08c379a00000000000000000000000000000000000000000000000000000000081526004016114f390612f70565b60405180910390fd5b6000600460003373ffffffffffffffffffffffffffffffffffffffff1673ffffffffffffffffffffffffffffffffffffffff16815260200190815260200160002060008373ffffffffffffffffffffffffffffffffffffffff1673ffffffffffffffffffffffffffffffffffffffff168152602001908152602001600020905060008160010154116115c3576040517f08c379a00000000000000000000000000000000000000000000000000000000081526004016115ba90612fdc565b60405180910390fd5b600034905081600101548111156115dc57816001015490505b808260010160008282546115f09190612a35565b9250508190555080600660008573ffffffffffffffffffffffffffffffffffffffff1673ffffffffffffffffffffffffffffffffffffffff16815260200190815260200160002060008282546116469190612a35565b925050819055508273ffffffffffffffffffffffffffffffffffffffff163373ffffffffffffffffffffffffffffffffffffffff167f05f2eeda0e08e4b437f487c8d7d29b14537d15e3488170dc3de5dbdf8dac4684836040516116aa919061265c565b60405180910390a350506116bc612451565b50565b6116c76123b8565b6116cf612407565b670de0b6b3a76400006116e184611fd3565b10611721576040517f08c379a000000000000000000000000000000000000000000000000000000000815260040161171890613048565b60405180910390fd5b6000600460008573ffffffffffffffffffffffffffffffffffffffff1673ffffffffffffffffffffffffffffffffffffffff16815260200190815260200160002060008473ffffffffffffffffffffffffffffffffffffffff1673ffffffffffffffffffffffffffffffffffffffff16815260200190815260200160002090506000600460008673ffffffffffffffffffffffffffffffffffffffff1673ffffffffffffffffffffffffffffffffffffffff16815260200190815260200160002060008473ffffffffffffffffffffffffffffffffffffffff1673ffffffffffffffffffffffffffffffffffffffff16815260200190815260200160002090506000826000015411611868576040517f08c379a000000000000000000000000000000000000000000000000000000000815260040161185f906130b4565b60405180910390fd5b60008160010154116118af576040517f08c379a00000000000000000000000000000000000000000000000000000000081526004016118a690612fdc565b60405180910390fd5b6000826000015490506000826001015490506000612710600360008973ffffffffffffffffffffffffffffffffffffffff1673ffffffffffffffffffffffffffffffffffffffff16815260200190815260200160002060020154846119149190612917565b61191e9190612988565b9050600085600001819055506000846001018190555082600560008973ffffffffffffffffffffffffffffffffffffffff1673ffffffffffffffffffffffffffffffffffffffff16815260200190815260200160002060008282546119839190612a35565b9250508190555081600660008873ffffffffffffffffffffffffffffffffffffffff1673ffffffffffffffffffffffffffffffffffffffff16815260200190815260200160002060008282546119d99190612a35565b92505081905550600073ffffffffffffffffffffffffffffffffffffffff168773ffffffffffffffffffffffffffffffffffffffff1603611a6b573373ffffffffffffffffffffffffffffffffffffffff166108fc8285611a3a91906129b9565b9081150290604051600060405180830381858888f19350505050158015611a65573d6000803e3d6000fd5b50611b34565b8673ffffffffffffffffffffffffffffffffffffffff1663a9059cbb338386611a9491906129b9565b6040518363ffffffff1660e01b8152600401611ab1929190612ed2565b6020604051808303816000875af1158015611ad0573d6000803e3d6000fd5b505050506040513d601f19601f82011682018060405250810190611af49190612dcd565b611b33576040517f08c379a0000000000000000000000000000000000000000000000000000000008152600401611b2a90612e46565b60405180910390fd5b5b8573ffffffffffffffffffffffffffffffffffffffff168773ffffffffffffffffffffffffffffffffffffffff168973ffffffffffffffffffffffffffffffffffffffff167f033fe6dadd06de536cd7b34266e12610e9d77a23d48d3d6218962a87cb74051486604051611ba8919061265c565b60405180910390a45050505050611bbd612451565b505050565b611bca61233a565b600073ffffffffffffffffffffffffffffffffffffffff168173ffffffffffffffffffffffffffffffffffffffff1603611c39576040517f08c379a0000000000000000000000000000000000000000000000000000000008152600401611c3090613146565b60405180910390fd5b611c428161245b565b50565b611c4d6123b8565b611c55612407565b60008111611c98576040517f08c379a0000000000000000000000000000000000000000000000000000000008152600401611c8f90612cb8565b60405180910390fd5b6000600460003373ffffffffffffffffffffffffffffffffffffffff1673ffffffffffffffffffffffffffffffffffffffff16815260200190815260200160002060008473ffffffffffffffffffffffffffffffffffffffff1673ffffffffffffffffffffffffffffffffffffffff16815260200190815260200160002090508181600001541015611d5f576040517f08c379a0000000000000000000000000000000000000000000000000000000008152600401611d56906131b2565b60405180910390fd5b670de0b6b3a7640000611d7133611fd3565b1015611db2576040517f08c379a0000000000000000000000000000000000000000000000000000000008152600401611da99061321e565b60405180910390fd5b81816000016000828254611dc69190612a35565b9250508190555081600560008573ffffffffffffffffffffffffffffffffffffffff1673ffffffffffffffffffffffffffffffffffffffff1681526020019081526020016000206000828254611e1c9190612a35565b92505081905550600073ffffffffffffffffffffffffffffffffffffffff168373ffffffffffffffffffffffffffffffffffffffff1603611ea3573373ffffffffffffffffffffffffffffffffffffffff166108fc839081150290604051600060405180830381858888f19350505050158015611e9d573d6000803e3d6000fd5b50611f61565b8273ffffffffffffffffffffffffffffffffffffffff1663a9059cbb33846040518363ffffffff1660e01b8152600401611ede929190612ed2565b6020604051808303816000875af1158015611efd573d6000803e3d6000fd5b505050506040513d601f19601f82011682018060405250810190611f219190612dcd565b611f60576040517f08c379a0000000000000000000000000000000000000000000000000000000008152600401611f5790612e46565b60405180910390fd5b5b8273ffffffffffffffffffffffffffffffffffffffff163373ffffffffffffffffffffffffffffffffffffffff167f9b1bfa7fa9ee420a16e124f794c35ac9f90472acc99140eb2f6447c714cad8eb84604051611fbe919061265c565b60405180910390a350611fcf612451565b5050565b600080600090506000805b600281101561218957600080821461201857600260009054906101000a900473ffffffffffffffffffffffffffffffffffffffff1661201b565b60005b90506000600460008873ffffffffffffffffffffffffffffffffffffffff1673ffffffffffffffffffffffffffffffffffffffff16815260200190815260200160002060008373ffffffffffffffffffffffffffffffffffffffff1673ffffffffffffffffffffffffffffffffffffffff168152602001908152602001600020905060008160000154111561217457612710670de0b6b3a7640000600360008573ffffffffffffffffffffffffffffffffffffffff1673ffffffffffffffffffffffffffffffffffffffff16815260200190815260200160002060010154600760008673ffffffffffffffffffffffffffffffffffffffff1673ffffffffffffffffffffffffffffffffffffffff1681526020019081526020016000205484600001546121489190612917565b6121529190612917565b61215c9190612988565b6121669190612988565b8561217191906129b9565b94505b50508080612181906129ed565b915050611fde565b5060005b60028110156122de5760008082146121c757600260009054906101000a900473ffffffffffffffffffffffffffffffffffffffff166121ca565b60005b90506000600460008873ffffffffffffffffffffffffffffffffffffffff1673ffffffffffffffffffffffffffffffffffffffff16815260200190815260200160002060008373ffffffffffffffffffffffffffffffffffffffff1673ffffffffffffffffffffffffffffffffffffffff16815260200190815260200160002090506000816001015411156122c957670de0b6b3a7640000600760008473ffffffffffffffffffffffffffffffffffffffff1673ffffffffffffffffffffffffffffffffffffffff1681526020019081526020016000205482600101546122b19190612917565b6122bb9190612988565b846122c691906129b9565b93505b505080806122d6906129ed565b91505061218d565b5060008103612311577fffffffffffffffffffffffffffffffffffffffffffffffffffffffffffffffff92505050612335565b80670de0b6b3a7640000836123269190612917565b6123309190612988565b925050505b919050565b61234261251e565b73ffffffffffffffffffffffffffffffffffffffff16612360611469565b73ffffffffffffffffffffffffffffffffffffffff16146123b6576040517f08c379a00000000000000000000000000000000000000000000000000000000081526004016123ad9061328a565b60405180910390fd5b565b6002600054036123fd576040517f08c379a00000000000000000000000000000000000000000000000000000000081526004016123f4906132f6565b60405180910390fd5b6002600081905550565b61240f6113c5565b1561244f576040517f08c379a000000000000000000000000000000000000000000000000000000000815260040161244690613362565b60405180910390fd5b565b6001600081905550565b600060018054906101000a900473ffffffffffffffffffffffffffffffffffffffff169050816001806101000a81548173ffffffffffffffffffffffffffffffffffffffff021916908373ffffffffffffffffffffffffffffffffffffffff1602179055508173ffffffffffffffffffffffffffffffffffffffff168173ffffffffffffffffffffffffffffffffffffffff167f8be0079c531659141344cd1fd0a4f28419497f9722a3daafe3b4186f6b6457e060405160405180910390a35050565b600033905090565b600073ffffffffffffffffffffffffffffffffffffffff82169050919050565b6000819050919050565b600061256b61256661256184612526565b612546565b612526565b9050919050565b600061257d82612550565b9050919050565b600061258f82612572565b9050919050565b61259f81612584565b82525050565b60006020820190506125ba6000830184612596565b92915050565b600080fd5b60006125d082612526565b9050919050565b6125e0816125c5565b81146125eb57600080fd5b50565b6000813590506125fd816125d7565b92915050565b6000806040838503121561261a576126196125c0565b5b6000612628858286016125ee565b9250506020612639858286016125ee565b9150509250929050565b6000819050919050565b61265681612643565b82525050565b6000602082019050612671600083018461264d565b92915050565b61268081612643565b811461268b57600080fd5b50565b60008135905061269d81612677565b92915050565b60008060008060008060c087890312156126c0576126bf6125c0565b5b60006126ce89828a016125ee565b96505060206126df89828a0161268e565b95505060406126f089828a0161268e565b945050606061270189828a0161268e565b935050608061271289828a0161268e565b92505060a061272389828a0161268e565b9150509295509295509295565b6000606082019050612745600083018661264d565b612752602083018561264d565b61275f604083018461264d565b949350505050565b6000806040838503121561277e5761277d6125c0565b5b600061278c858286016125ee565b925050602061279d8582860161268e565b9150509250929050565b60008115159050919050565b6127bc816127a7565b82525050565b60006020820190506127d760008301846127b3565b92915050565b6000602082840312156127f3576127f26125c0565b5b6000612801848285016125ee565b91505092915050565b600060c08201905061281f600083018961264d565b61282c602083018861264d565b612839604083018761264d565b612846606083018661264d565b612853608083018561264d565b61286060a08301846127b3565b979650505050505050565b612874816125c5565b82525050565b600060208201905061288f600083018461286b565b92915050565b6000806000606084860312156128ae576128ad6125c0565b5b60006128bc868287016125ee565b93505060206128cd868287016125ee565b92505060406128de868287016125ee565b9150509250925092565b7f4e487b7100000000000000000000000000000000000000000000000000000000600052601160045260246000fd5b600061292282612643565b915061292d83612643565b925082820261293b81612643565b91508282048414831517612952576129516128e8565b5b5092915050565b7f4e487b7100000000000000000000000000000000000000000000000000000000600052601260045260246000fd5b600061299382612643565b915061299e83612643565b9250826129ae576129ad612959565b5b828204905092915050565b60006129c482612643565b91506129cf83612643565b92508282019050808211156129e7576129e66128e8565b5b92915050565b60006129f882612643565b91507fffffffffffffffffffffffffffffffffffffffffffffffffffffffffffffffff8203612a2a57612a296128e8565b5b600182019050919050565b6000612a4082612643565b9150612a4b83612643565b9250828203905081811115612a6357612a626128e8565b5b92915050565b600081519050612a7881612677565b92915050565b600060208284031215612a9457612a936125c0565b5b6000612aa284828501612a69565b91505092915050565b600082825260208201905092915050565b7f4c545620746f6f20686967680000000000000000000000000000000000000000600082015250565b6000612af2600c83612aab565b9150612afd82612abc565b602082019050919050565b60006020820190508181036000830152612b2181612ae5565b9050919050565b7f496e76616c6964206c69717569646174696f6e207468726573686f6c64000000600082015250565b6000612b5e601d83612aab565b9150612b6982612b28565b602082019050919050565b60006020820190508181036000830152612b8d81612b51565b9050919050565b7f426f6e757320746f6f2068696768000000000000000000000000000000000000600082015250565b6000612bca600e83612aab565b9150612bd582612b94565b602082019050919050565b60006020820190508181036000830152612bf981612bbd565b9050919050565b7f4173736574206e6f742061637469766500000000000000000000000000000000600082015250565b6000612c36601083612aab565b9150612c4182612c00565b602082019050919050565b60006020820190508181036000830152612c6581612c29565b9050919050565b7f416d6f756e74206d757374206265203e20300000000000000000000000000000600082015250565b6000612ca2601283612aab565b9150612cad82612c6c565b602082019050919050565b60006020820190508181036000830152612cd181612c95565b9050919050565b7f446f206e6f742073656e6420455448207768656e206465706f736974696e672060008201527f4552433230000000000000000000000000000000000000000000000000000000602082015250565b6000612d34602583612aab565b9150612d3f82612cd8565b604082019050919050565b60006020820190508181036000830152612d6381612d27565b9050919050565b6000606082019050612d7f600083018661286b565b612d8c602083018561286b565b612d99604083018461264d565b949350505050565b612daa816127a7565b8114612db557600080fd5b50565b600081519050612dc781612da1565b92915050565b600060208284031215612de357612de26125c0565b5b6000612df184828501612db8565b91505092915050565b7f5472616e73666572206661696c65640000000000000000000000000000000000600082015250565b6000612e30600f83612aab565b9150612e3b82612dfa565b602082019050919050565b60006020820190508181036000830152612e5f81612e23565b9050919050565b7f4578636565647320626f72726f77206c696d6974000000000000000000000000600082015250565b6000612e9c601483612aab565b9150612ea782612e66565b602082019050919050565b60006020820190508181036000830152612ecb81612e8f565b9050919050565b6000604082019050612ee7600083018561286b565b612ef4602083018461264d565b9392505050565b6000604082019050612f10600083018561264d565b612f1d602083018461264d565b9392505050565b7f4e6f2076616c75652073656e7400000000000000000000000000000000000000600082015250565b6000612f5a600d83612aab565b9150612f6582612f24565b602082019050919050565b60006020820190508181036000830152612f8981612f4d565b9050919050565b7f4e6f206465627400000000000000000000000000000000000000000000000000600082015250565b6000612fc6600783612aab565b9150612fd182612f90565b602082019050919050565b60006020820190508181036000830152612ff581612fb9565b9050919050565b7f55736572206973206865616c7468790000000000000000000000000000000000600082015250565b6000613032600f83612aab565b915061303d82612ffc565b602082019050919050565b6000602082019050818103600083015261306181613025565b9050919050565b7f4e6f20636f6c6c61746572616c00000000000000000000000000000000000000600082015250565b600061309e600d83612aab565b91506130a982613068565b602082019050919050565b600060208201905081810360008301526130cd81613091565b9050919050565b7f4f776e61626c653a206e6577206f776e657220697320746865207a65726f206160008201527f6464726573730000000000000000000000000000000000000000000000000000602082015250565b6000613130602683612aab565b915061313b826130d4565b604082019050919050565b6000602082019050818103600083015261315f81613123565b9050919050565b7f496e73756666696369656e7420636f6c6c61746572616c000000000000000000600082015250565b600061319c601783612aab565b91506131a782613166565b602082019050919050565b600060208201905081810360008301526131cb8161318f565b9050919050565b7f4865616c746820666163746f7220746f6f206c6f770000000000000000000000600082015250565b6000613208601583612aab565b9150613213826131d2565b602082019050919050565b60006020820190508181036000830152613237816131fb565b9050919050565b7f4f776e61626c653a2063616c6c6572206973206e6f7420746865206f776e6572600082015250565b6000613274602083612aab565b915061327f8261323e565b602082019050919050565b600060208201905081810360008301526132a381613267565b9050919050565b7f5265656e7472616e637947756172643a207265656e7472616e742063616c6c00600082015250565b60006132e0601f83612aab565b91506132eb826132aa565b602082019050919050565b6000602082019050818103600083015261330f816132d3565b9050919050565b7f5061757361626c653a2070617573656400000000000000000000000000000000600082015250565b600061334c601083612aab565b915061335782613316565b602082019050919050565b6000602082019050818103600083015261337b8161333f565b905091905056fea26469706673582212200cd9ccd4e12ac3812b0f592630ed6c53c7e6727008966ce339f418851e51781964736f6c63430008140033",
  "linkReferences": {},
  "deployedLinkReferences": {}
}