{
  "_format": "hh-sol-artifact-1",
  "contractName": "LendingPool",
  "sourceName": "contracts/LendingPool.sol",
  "abi": [
    {
      "inputs": [
        {
          "internalType": "address",
          "name": "_bpToken",
          "type": "address"
        }
      ],
      "stateMutability": "nonpayable",
      "type": "constructor"
    },
    {
      "inputs": [],
      "name": "COLLATERAL_RATE",
      "outputs": [
        {
          "internalType": "uint256",
          "name": "",
          "type": "uint256"
        }
      ],
      "stateMutability": "view",
      "type": "function"
    },
    {
      "inputs": [
        {
          "internalType": "uint256",
          "name": "ethAmount",
          "type": "uint256"
        }
      ],
      "name": "borrow",
      "outputs": [],
      "stateMutability": "nonpayable",
      "type": "function"
    },
    {
      "inputs": [],
      "name": "bpPriceInETH",
      "outputs": [
        {
          "internalType": "uint256",
          "name": "",
          "type": "uint256"
        }
      ],
      "stateMutability": "view",
      "type": "function"
    },
    {
      "inputs": [],
      "name": "bpToken",
      "outputs": [
        {
          "internalType": "contract MyToken",
          "name": "",
          "type": "address"
        }
      ],
      "stateMutability": "view",
      "type": "function"
    },
    {
      "inputs": [
        {
          "internalType": "address",
          "name": "",
          "type": "address"
        }
      ],
      "name": "collateralBP",
      "outputs": [
        {
          "internalType": "uint256",
          "name": "",
          "type": "uint256"
        }
      ],
      "stateMutability": "view",
      "type": "function"
    },
    {
      "inputs": [
        {
          "internalType": "address",
          "name": "",
          "type": "address"
        }
      ],
      "name": "debtETH",
      "outputs": [
        {
          "internalType": "uint256",
          "name": "",
          "type": "uint256"
        }
      ],
      "stateMutability": "view",
      "type": "function"
    },
    {
      "inputs": [
        {
          "internalType": "uint256",
          "name": "amount",
          "type": "uint256"
        }
      ],
      "name": "depositCollateral",
      "outputs": [],
      "stateMutability": "nonpayable",
      "type": "function"
    },
    {
      "inputs": [],
      "name": "depositETH",
      "outputs": [],
      "stateMutability": "payable",
      "type": "function"
    },
    {
      "inputs": [
        {
          "internalType": "address",
          "name": "",
          "type": "address"
        }
      ],
      "name": "ethDeposits",
      "outputs": [
        {
          "internalType": "uint256",
          "name": "",
          "type": "uint256"
        }
      ],
      "stateMutability": "view",
      "type": "function"
    },
    {
      "inputs": [
        {
          "internalType": "address",
          "name": "user",
          "type": "address"
        }
      ],
      "name": "liquidate",
      "outputs": [],
      "stateMutability": "nonpayable",
      "type": "function"
    },
    {
      "inputs": [
        {
          "internalType": "address",
          "name": "user",
          "type": "address"
        }
      ],
      "name": "maxBorrowable",
      "outputs": [
        {
          "internalType": "uint256",
          "name": "",
          "type": "uint256"
        }
      ],
      "stateMutability": "view",
      "type": "function"
    },
    {
      "inputs": [],
      "name": "owner",
      "outputs": [
        {
          "internalType": "address",
          "name": "",
          "type": "address"
        }
      ],
      "stateMutability": "view",
      "type": "function"
    },
    {
      "inputs": [],
      "name": "poolETHBalance",
      "outputs": [
        {
          "internalType": "uint256",
          "name": "",
          "type": "uint256"
        }
      ],
      "stateMutability": "view",
      "type": "function"
    },
    {
      "inputs": [],
      "name": "repay",
      "outputs": [],
      "stateMutability": "payable",
      "type": "function"
    },
    {
      "inputs": [
        {
          "internalType": "uint256",
          "name": "_price",
          "type": "uint256"
        }
      ],
      "name": "setBPPrice",
      "outputs": [],
      "stateMutability": "nonpayable",
      "type": "function"
    },
    {
      "inputs": [
        {
          "internalType": "uint256",
          "name": "amount",
          "type": "uint256"
        }
      ],
      "name": "withdrawCollateral",
      "outputs": [],
      "stateMutability": "nonpayable",
      "type": "function"
    },
    {
      "stateMutability": "payable",
      "type": "receive"
    }
  ],
  "bytecode": "0x60806040523480156200001157600080fd5b506040516200194838038062001948833981810160405281019062000037919062000137565b806000806101000a81548173ffffffffffffffffffffffffffffffffffffffff021916908373ffffffffffffffffffffffffffffffffffffffff16021790555033600160006101000a81548173ffffffffffffffffffffffffffffffffffffffff021916908373ffffffffffffffffffffffffffffffffffffffff160217905550662386f26fc100006005819055505062000169565b600080fd5b600073ffffffffffffffffffffffffffffffffffffffff82169050919050565b6000620000ff82620000d2565b9050919050565b6200011181620000f2565b81146200011d57600080fd5b50565b600081519050620001318162000106565b92915050565b60006020828403121562000150576200014f620000cd565b5b6000620001608482850162000120565b91505092915050565b6117cf80620001796000396000f3fe6080604052600436106100f75760003560e01c80639852d0151161008a578063c5ebeaec11610059578063c5ebeaec14610302578063ef925f491461032b578063f6326fb314610368578063f8c066d414610372576100fe565b80639852d01514610246578063b08e3fb514610271578063b9d1ed4a1461029c578063bad4a01f146102d9576100fe565b80636112fe2e116100c65780636112fe2e1461019e57806378a14d0e146101c75780638da5cb5b146101f2578063943440721461021d576100fe565b806323685b97146101035780632f8655681461012e578063402d88831461015757806353696eb814610161576100fe565b366100fe57005b600080fd5b34801561010f57600080fd5b506101186103af565b604051610125919061107c565b60405180910390f35b34801561013a57600080fd5b50610155600480360381019061015091906110da565b6103d3565b005b61015f610692565b005b34801561016d57600080fd5b50610188600480360381019061018391906110da565b61083f565b6040516101959190611120565b60405180910390f35b3480156101aa57600080fd5b506101c560048036038101906101c09190611167565b6108c5565b005b3480156101d357600080fd5b506101dc610b4e565b6040516101e99190611120565b60405180910390f35b3480156101fe57600080fd5b50610207610b53565b60405161021491906111a3565b60405180910390f35b34801561022957600080fd5b50610244600480360381019061023f9190611167565b610b79565b005b34801561025257600080fd5b5061025b610c13565b6040516102689190611120565b60405180910390f35b34801561027d57600080fd5b50610286610c1b565b6040516102939190611120565b60405180910390f35b3480156102a857600080fd5b506102c360048036038101906102be91906110da565b610c21565b6040516102d09190611120565b60405180910390f35b3480156102e557600080fd5b5061030060048036038101906102fb9190611167565b610c39565b005b34801561030e57600080fd5b5061032960048036038101906103249190611167565b610db4565b005b34801561033757600080fd5b50610352600480360381019061034d91906110da565b610f32565b60405161035f9190611120565b60405180910390f35b610370610f4a565b005b34801561037e57600080fd5b50610399600480360381019061039491906110da565b610fe5565b6040516103a69190611120565b60405180910390f35b60008054906101000a900473ffffffffffffffffffffffffffffffffffffffff1681565b6000670de0b6b3a7640000600554600260008573ffffffffffffffffffffffffffffffffffffffff1673ffffffffffffffffffffffffffffffffffffffff1681526020019081526020016000205461042b91906111ed565b610435919061125e565b9050600060646096600360008673ffffffffffffffffffffffffffffffffffffffff1673ffffffffffffffffffffffffffffffffffffffff1681526020019081526020016000205461048791906111ed565b610491919061125e565b90508082106104d5576040517f08c379a00000000000000000000000000000000000000000000000000000000081526004016104cc906112ec565b60405180910390fd5b6000600a600260008673ffffffffffffffffffffffffffffffffffffffff1673ffffffffffffffffffffffffffffffffffffffff16815260200190815260200160002054610523919061125e565b90506000600260008673ffffffffffffffffffffffffffffffffffffffff1673ffffffffffffffffffffffffffffffffffffffff168152602001908152602001600020819055506000600360008673ffffffffffffffffffffffffffffffffffffffff1673ffffffffffffffffffffffffffffffffffffffff1681526020019081526020016000208190555060008054906101000a900473ffffffffffffffffffffffffffffffffffffffff1673ffffffffffffffffffffffffffffffffffffffff1663a9059cbb33836040518363ffffffff1660e01b815260040161060a92919061130c565b6020604051808303816000875af1158015610629573d6000803e3d6000fd5b505050506040513d601f19601f8201168201806040525081019061064d919061136d565b61068c576040517f08c379a0000000000000000000000000000000000000000000000000000000008152600401610683906113e6565b60405180910390fd5b50505050565b6000600360003373ffffffffffffffffffffffffffffffffffffffff1673ffffffffffffffffffffffffffffffffffffffff1681526020019081526020016000205411610714576040517f08c379a000000000000000000000000000000000000000000000000000000000815260040161070b90611452565b60405180910390fd5b60003411610757576040517f08c379a000000000000000000000000000000000000000000000000000000000815260040161074e906114be565b60405180910390fd5b6000349050600360003373ffffffffffffffffffffffffffffffffffffffff1673ffffffffffffffffffffffffffffffffffffffff168152602001908152602001600020548111156107e657600360003373ffffffffffffffffffffffffffffffffffffffff1673ffffffffffffffffffffffffffffffffffffffff1681526020019081526020016000205490505b80600360003373ffffffffffffffffffffffffffffffffffffffff1673ffffffffffffffffffffffffffffffffffffffff168152602001908152602001600020600082825461083591906114de565b9250508190555050565b600080670de0b6b3a7640000600554600260008673ffffffffffffffffffffffffffffffffffffffff1673ffffffffffffffffffffffffffffffffffffffff1681526020019081526020016000205461089891906111ed565b6108a2919061125e565b905060966064826108b391906111ed565b6108bd919061125e565b915050919050565b60008111610908576040517f08c379a00000000000000000000000000000000000000000000000000000000081526004016108ff9061155e565b60405180910390fd5b600081600260003373ffffffffffffffffffffffffffffffffffffffff1673ffffffffffffffffffffffffffffffffffffffff1681526020019081526020016000205461095591906114de565b9050600060966064670de0b6b3a76400006005548561097491906111ed565b61097e919061125e565b61098891906111ed565b610992919061125e565b905080600360003373ffffffffffffffffffffffffffffffffffffffff1673ffffffffffffffffffffffffffffffffffffffff168152602001908152602001600020541115610a16576040517f08c379a0000000000000000000000000000000000000000000000000000000008152600401610a0d906115ca565b60405180910390fd5b82600260003373ffffffffffffffffffffffffffffffffffffffff1673ffffffffffffffffffffffffffffffffffffffff1681526020019081526020016000206000828254610a6591906114de565b9250508190555060008054906101000a900473ffffffffffffffffffffffffffffffffffffffff1673ffffffffffffffffffffffffffffffffffffffff1663a9059cbb33856040518363ffffffff1660e01b8152600401610ac792919061130c565b6020604051808303816000875af1158015610ae6573d6000803e3d6000fd5b505050506040513d601f19601f82011682018060405250810190610b0a919061136d565b610b49576040517f08c379a0000000000000000000000000000000000000000000000000000000008152600401610b4090611636565b60405180910390fd5b505050565b609681565b600160009054906101000a900473ffffffffffffffffffffffffffffffffffffffff1681565b600160009054906101000a900473ffffffffffffffffffffffffffffffffffffffff1673ffffffffffffffffffffffffffffffffffffffff163373ffffffffffffffffffffffffffffffffffffffff1614610c09576040517f08c379a0000000000000000000000000000000000000000000000000000000008152600401610c00906116a2565b60405180910390fd5b8060058190555050565b600047905090565b60055481565b60046020528060005260406000206000915090505481565b60008111610c7c576040517f08c379a0000000000000000000000000000000000000000000000000000000008152600401610c739061155e565b60405180910390fd5b60008054906101000a900473ffffffffffffffffffffffffffffffffffffffff1673ffffffffffffffffffffffffffffffffffffffff166323b872dd3330846040518463ffffffff1660e01b8152600401610cd9939291906116c2565b6020604051808303816000875af1158015610cf8573d6000803e3d6000fd5b505050506040513d601f19601f82011682018060405250810190610d1c919061136d565b610d5b576040517f08c379a0000000000000000000000000000000000000000000000000000000008152600401610d5290611636565b60405180910390fd5b80600260003373ffffffffffffffffffffffffffffffffffffffff1673ffffffffffffffffffffffffffffffffffffffff1681526020019081526020016000206000828254610daa91906116f9565b9250508190555050565b60008111610df7576040517f08c379a0000000000000000000000000000000000000000000000000000000008152600401610dee9061155e565b60405180910390fd5b6000600360003373ffffffffffffffffffffffffffffffffffffffff1673ffffffffffffffffffffffffffffffffffffffff16815260200190815260200160002054610e423361083f565b610e4c91906114de565b905080821115610e91576040517f08c379a0000000000000000000000000000000000000000000000000000000008152600401610e8890611779565b60405180910390fd5b81600360003373ffffffffffffffffffffffffffffffffffffffff1673ffffffffffffffffffffffffffffffffffffffff1681526020019081526020016000206000828254610ee091906116f9565b925050819055503373ffffffffffffffffffffffffffffffffffffffff166108fc839081150290604051600060405180830381858888f19350505050158015610f2d573d6000803e3d6000fd5b505050565b60036020528060005260406000206000915090505481565b60003411610f8d576040517f08c379a0000000000000000000000000000000000000000000000000000000008152600401610f84906114be565b60405180910390fd5b34600460003373ffffffffffffffffffffffffffffffffffffffff1673ffffffffffffffffffffffffffffffffffffffff1681526020019081526020016000206000828254610fdc91906116f9565b92505081905550565b60026020528060005260406000206000915090505481565b600073ffffffffffffffffffffffffffffffffffffffff82169050919050565b6000819050919050565b600061104261103d61103884610ffd565b61101d565b610ffd565b9050919050565b600061105482611027565b9050919050565b600061106682611049565b9050919050565b6110768161105b565b82525050565b6000602082019050611091600083018461106d565b92915050565b600080fd5b60006110a782610ffd565b9050919050565b6110b78161109c565b81146110c257600080fd5b50565b6000813590506110d4816110ae565b92915050565b6000602082840312156110f0576110ef611097565b5b60006110fe848285016110c5565b91505092915050565b6000819050919050565b61111a81611107565b82525050565b60006020820190506111356000830184611111565b92915050565b61114481611107565b811461114f57600080fd5b50565b6000813590506111618161113b565b92915050565b60006020828403121561117d5761117c611097565b5b600061118b84828501611152565b91505092915050565b61119d8161109c565b82525050565b60006020820190506111b86000830184611194565b92915050565b7f4e487b7100000000000000000000000000000000000000000000000000000000600052601160045260246000fd5b60006111f882611107565b915061120383611107565b925082820261121181611107565b91508282048414831517611228576112276111be565b5b5092915050565b7f4e487b7100000000000000000000000000000000000000000000000000000000600052601260045260246000fd5b600061126982611107565b915061127483611107565b9250826112845761128361122f565b5b828204905092915050565b600082825260208201905092915050565b7f4e6f7420656c696769626c6520666f72206c69717569646174696f6e00000000600082015250565b60006112d6601c8361128f565b91506112e1826112a0565b602082019050919050565b60006020820190508181036000830152611305816112c9565b9050919050565b60006040820190506113216000830185611194565b61132e6020830184611111565b9392505050565b60008115159050919050565b61134a81611335565b811461135557600080fd5b50565b60008151905061136781611341565b92915050565b60006020828403121561138357611382611097565b5b600061139184828501611358565b91505092915050565b7f526577617264207472616e73666572206661696c656400000000000000000000600082015250565b60006113d060168361128f565b91506113db8261139a565b602082019050919050565b600060208201905081810360008301526113ff816113c3565b9050919050565b7f4e6f206465627400000000000000000000000000000000000000000000000000600082015250565b600061143c60078361128f565b915061144782611406565b602082019050919050565b6000602082019050818103600083015261146b8161142f565b9050919050565b7f4e6f204554482073656e74000000000000000000000000000000000000000000600082015250565b60006114a8600b8361128f565b91506114b382611472565b602082019050919050565b600060208201905081810360008301526114d78161149b565b9050919050565b60006114e982611107565b91506114f483611107565b925082820390508181111561150c5761150b6111be565b5b92915050565b7f416d6f756e74206d757374206265203e20300000000000000000000000000000600082015250565b600061154860128361128f565b915061155382611512565b602082019050919050565b600060208201905081810360008301526115778161153b565b9050919050565b7f4465627420746f6f206869676820616674657220776974686472617700000000600082015250565b60006115b4601c8361128f565b91506115bf8261157e565b602082019050919050565b600060208201905081810360008301526115e3816115a7565b9050919050565b7f5472616e73666572206661696c65640000000000000000000000000000000000600082015250565b6000611620600f8361128f565b915061162b826115ea565b602082019050919050565b6000602082019050818103600083015261164f81611613565b9050919050565b7f4e6f74206f776e65720000000000000000000000000000000000000000000000600082015250565b600061168c60098361128f565b915061169782611656565b602082019050919050565b600060208201905081810360008301526116bb8161167f565b9050919050565b60006060820190506116d76000830186611194565b6116e46020830185611194565b6116f16040830184611111565b949350505050565b600061170482611107565b915061170f83611107565b9250828201905080821115611727576117266111be565b5b92915050565b7f4578636565647320626f72726f77206c696d6974000000000000000000000000600082015250565b600061176360148361128f565b915061176e8261172d565b602082019050919050565b6000602082019050818103600083015261179281611756565b905091905056fea26469706673582212201fd626a1af77d0d53ad9d0860438b8063b01634b0561b0fa09339ceef45133af64736f6c63430008140033",
  "linkReferences": {},
  "deployedLinkReferences": {}
}