{
  "_format": "hh-sol-artifact-1",
  "contractName": "LendingPool",
  "sourceName": "contracts/LendingPool.sol",
  "abi": [
    {
      "inputs": [
        {
          "internalType": "address",
          "name": "_bpToken",
          "type": "address"
        }
      ],
      "stateMutability": "nonpayable",
      "type": "constructor"
    },
    {
      "anonymous": false,
      "inputs": [
        {
          "indexed": true,
          "internalType": "address",
          "name": "asset",
          "type": "address"
        },
        {
          "indexed": false,
          "internalType": "uint256",
          "name": "ltv",
          "type": "uint256"
        },
        {
          "indexed": false,
          "internalType": "uint256",
          "name": "liquidationThreshold",
          "type": "uint256"
        },
        {
          "indexed": false,
          "internalType": "uint256",
          "name": "liquidationBonus",
          "type": "uint256"
        }
      ],
      "name": "AssetConfigUpdated",
      "type": "event"
    },
    {
      "anonymous": false,
      "inputs": [
        {
          "indexed": true,
          "internalType": "address",
          "name": "user",
          "type": "address"
        },
        {
          "indexed": true,
          "internalType": "address",
          "name": "asset",
          "type": "address"
        },
        {
          "indexed": false,
          "internalType": "uint256",
          "name": "amount",
          "type": "uint256"
        }
      ],
      "name": "Borrow",
      "type": "event"
    },
    {
      "anonymous": false,
      "inputs": [
        {
          "indexed": true,
          "internalType": "address",
          "name": "user",
          "type": "address"
        },
        {
          "indexed": true,
          "internalType": "address",
          "name": "asset",
          "type": "address"
        },
        {
          "indexed": false,
          "internalType": "uint256",
          "name": "amount",
          "type": "uint256"
        }
      ],
      "name": "Deposit",
      "type": "event"
    },
    {
      "anonymous": false,
      "inputs": [
        {
          "indexed": true,
          "internalType": "address",
          "name": "user",
          "type": "address"
        },
        {
          "indexed": true,
          "internalType": "address",
          "name": "asset",
          "type": "address"
        },
        {
          "indexed": true,
          "internalType": "address",
          "name": "liquidator",
          "type": "address"
        },
        {
          "indexed": false,
          "internalType": "uint256",
          "name": "amount",
          "type": "uint256"
        }
      ],
      "name": "Liquidate",
      "type": "event"
    },
    {
      "anonymous": false,
      "inputs": [
        {
          "indexed": true,
          "internalType": "address",
          "name": "previousOwner",
          "type": "address"
        },
        {
          "indexed": true,
          "internalType": "address",
          "name": "newOwner",
          "type": "address"
        }
      ],
      "name": "OwnershipTransferred",
      "type": "event"
    },
    {
      "anonymous": false,
      "inputs": [
        {
          "indexed": false,
          "internalType": "address",
          "name": "account",
          "type": "address"
        }
      ],
      "name": "Paused",
      "type": "event"
    },
    {
      "anonymous": false,
      "inputs": [
        {
          "indexed": true,
          "internalType": "address",
          "name": "asset",
          "type": "address"
        },
        {
          "indexed": false,
          "internalType": "uint256",
          "name": "oldPrice",
          "type": "uint256"
        },
        {
          "indexed": false,
          "internalType": "uint256",
          "name": "newPrice",
          "type": "uint256"
        }
      ],
      "name": "PriceUpdated",
      "type": "event"
    },
    {
      "anonymous": false,
      "inputs": [
        {
          "indexed": true,
          "internalType": "address",
          "name": "user",
          "type": "address"
        },
        {
          "indexed": true,
          "internalType": "address",
          "name": "asset",
          "type": "address"
        },
        {
          "indexed": false,
          "internalType": "uint256",
          "name": "amount",
          "type": "uint256"
        }
      ],
      "name": "Repay",
      "type": "event"
    },
    {
      "anonymous": false,
      "inputs": [
        {
          "indexed": false,
          "internalType": "address",
          "name": "account",
          "type": "address"
        }
      ],
      "name": "Unpaused",
      "type": "event"
    },
    {
      "anonymous": false,
      "inputs": [
        {
          "indexed": true,
          "internalType": "address",
          "name": "user",
          "type": "address"
        },
        {
          "indexed": true,
          "internalType": "address",
          "name": "asset",
          "type": "address"
        },
        {
          "indexed": false,
          "internalType": "uint256",
          "name": "amount",
          "type": "uint256"
        }
      ],
      "name": "Withdraw",
      "type": "event"
    },
    {
      "inputs": [
        {
          "internalType": "address",
          "name": "",
          "type": "address"
        }
      ],
      "name": "assetConfigs",
      "outputs": [
        {
          "internalType": "uint256",
          "name": "ltv",
          "type": "uint256"
        },
        {
          "internalType": "uint256",
          "name": "liquidationThreshold",
          "type": "uint256"
        },
        {
          "internalType": "uint256",
          "name": "liquidationBonus",
          "type": "uint256"
        },
        {
          "internalType": "uint256",
          "name": "borrowRate",
          "type": "uint256"
        },
        {
          "internalType": "uint256",
          "name": "depositRate",
          "type": "uint256"
        },
        {
          "internalType": "bool",
          "name": "isActive",
          "type": "bool"
        }
      ],
      "stateMutability": "view",
      "type": "function"
    },
    {
      "inputs": [
        {
          "internalType": "address",
          "name": "",
          "type": "address"
        }
      ],
      "name": "assetPrices",
      "outputs": [
        {
          "internalType": "uint256",
          "name": "",
          "type": "uint256"
        }
      ],
      "stateMutability": "view",
      "type": "function"
    },
    {
      "inputs": [
        {
          "internalType": "address",
          "name": "asset",
          "type": "address"
        },
        {
          "internalType": "uint256",
          "name": "amount",
          "type": "uint256"
        }
      ],
      "name": "borrow",
      "outputs": [],
      "stateMutability": "nonpayable",
      "type": "function"
    },
    {
      "inputs": [],
      "name": "bpToken",
      "outputs": [
        {
          "internalType": "contract MyToken",
          "name": "",
          "type": "address"
        }
      ],
      "stateMutability": "view",
      "type": "function"
    },
    {
      "inputs": [
        {
          "internalType": "address",
          "name": "asset",
          "type": "address"
        }
      ],
      "name": "deposit",
      "outputs": [],
      "stateMutability": "payable",
      "type": "function"
    },
    {
      "inputs": [
        {
          "internalType": "address",
          "name": "user",
          "type": "address"
        },
        {
          "internalType": "address",
          "name": "asset",
          "type": "address"
        }
      ],
      "name": "getBorrowableAmount",
      "outputs": [
        {
          "internalType": "uint256",
          "name": "",
          "type": "uint256"
        }
      ],
      "stateMutability": "view",
      "type": "function"
    },
    {
      "inputs": [
        {
          "internalType": "address",
          "name": "user",
          "type": "address"
        }
      ],
      "name": "getHealthFactor",
      "outputs": [
        {
          "internalType": "uint256",
          "name": "",
          "type": "uint256"
        }
      ],
      "stateMutability": "view",
      "type": "function"
    },
    {
      "inputs": [
        {
          "internalType": "address",
          "name": "user",
          "type": "address"
        },
        {
          "internalType": "address",
          "name": "collateralAsset",
          "type": "address"
        },
        {
          "internalType": "address",
          "name": "debtAsset",
          "type": "address"
        }
      ],
      "name": "liquidate",
      "outputs": [],
      "stateMutability": "nonpayable",
      "type": "function"
    },
    {
      "inputs": [],
      "name": "owner",
      "outputs": [
        {
          "internalType": "address",
          "name": "",
          "type": "address"
        }
      ],
      "stateMutability": "view",
      "type": "function"
    },
    {
      "inputs": [],
      "name": "paused",
      "outputs": [
        {
          "internalType": "bool",
          "name": "",
          "type": "bool"
        }
      ],
      "stateMutability": "view",
      "type": "function"
    },
    {
      "inputs": [],
      "name": "renounceOwnership",
      "outputs": [],
      "stateMutability": "nonpayable",
      "type": "function"
    },
    {
      "inputs": [
        {
          "internalType": "address",
          "name": "asset",
          "type": "address"
        }
      ],
      "name": "repay",
      "outputs": [],
      "stateMutability": "payable",
      "type": "function"
    },
    {
      "inputs": [
        {
          "internalType": "address",
          "name": "asset",
          "type": "address"
        },
        {
          "internalType": "uint256",
          "name": "ltv",
          "type": "uint256"
        },
        {
          "internalType": "uint256",
          "name": "liquidationThreshold",
          "type": "uint256"
        },
        {
          "internalType": "uint256",
          "name": "liquidationBonus",
          "type": "uint256"
        },
        {
          "internalType": "uint256",
          "name": "borrowRate",
          "type": "uint256"
        },
        {
          "internalType": "uint256",
          "name": "depositRate",
          "type": "uint256"
        }
      ],
      "name": "setAssetConfig",
      "outputs": [],
      "stateMutability": "nonpayable",
      "type": "function"
    },
    {
      "inputs": [
        {
          "internalType": "address",
          "name": "asset",
          "type": "address"
        },
        {
          "internalType": "uint256",
          "name": "price",
          "type": "uint256"
        }
      ],
      "name": "setAssetPrice",
      "outputs": [],
      "stateMutability": "nonpayable",
      "type": "function"
    },
    {
      "inputs": [
        {
          "internalType": "address",
          "name": "",
          "type": "address"
        }
      ],
      "name": "totalBorrows",
      "outputs": [
        {
          "internalType": "uint256",
          "name": "",
          "type": "uint256"
        }
      ],
      "stateMutability": "view",
      "type": "function"
    },
    {
      "inputs": [
        {
          "internalType": "address",
          "name": "",
          "type": "address"
        }
      ],
      "name": "totalSupplies",
      "outputs": [
        {
          "internalType": "uint256",
          "name": "",
          "type": "uint256"
        }
      ],
      "stateMutability": "view",
      "type": "function"
    },
    {
      "inputs": [
        {
          "internalType": "address",
          "name": "newOwner",
          "type": "address"
        }
      ],
      "name": "transferOwnership",
      "outputs": [],
      "stateMutability": "nonpayable",
      "type": "function"
    },
    {
      "inputs": [
        {
          "internalType": "address",
          "name": "",
          "type": "address"
        },
        {
          "internalType": "address",
          "name": "",
          "type": "address"
        }
      ],
      "name": "userAssetStates",
      "outputs": [
        {
          "internalType": "uint256",
          "name": "collateral",
          "type": "uint256"
        },
        {
          "internalType": "uint256",
          "name": "debt",
          "type": "uint256"
        },
        {
          "internalType": "uint256",
          "name": "lastUpdateTime",
          "type": "uint256"
        }
      ],
      "stateMutability": "view",
      "type": "function"
    },
    {
      "inputs": [
        {
          "internalType": "address",
          "name": "asset",
          "type": "address"
        },
        {
          "internalType": "uint256",
          "name": "amount",
          "type": "uint256"
        }
      ],
      "name": "withdraw",
      "outputs": [],
      "stateMutability": "nonpayable",
      "type": "function"
    },
    {
      "stateMutability": "payable",
      "type": "receive"
    }
  ],
  "bytecode": "0x60806040523480156200001157600080fd5b50604051620036013803806200360183398181016040528101906200003791906200042a565b60016000819055506000600160006101000a81548160ff0219169083151502179055506200007a6200006e620002f560201b60201c565b620002fd60201b60201c565b80600260006101000a81548173ffffffffffffffffffffffffffffffffffffffff021916908373ffffffffffffffffffffffffffffffffffffffff1602179055506040518060c00160405280611f40815260200161203a81526020016101f481526020016101f4815260200161012c815260200160011515815250600360008073ffffffffffffffffffffffffffffffffffffffff1673ffffffffffffffffffffffffffffffffffffffff168152602001908152602001600020600082015181600001556020820151816001015560408201518160020155606082015181600301556080820151816004015560a08201518160050160006101000a81548160ff0219169083151502179055509050506040518060c00160405280611d4c8152602001611f4081526020016101f481526020016102588152602001610190815260200160011515815250600360008373ffffffffffffffffffffffffffffffffffffffff1673ffffffffffffffffffffffffffffffffffffffff168152602001908152602001600020600082015181600001556020820151816001015560408201518160020155606082015181600301556080820151816004015560a08201518160050160006101000a81548160ff021916908315150217905550905050670de0b6b3a7640000600760008073ffffffffffffffffffffffffffffffffffffffff1673ffffffffffffffffffffffffffffffffffffffff16815260200190815260200160002081905550662386f26fc10000600760008373ffffffffffffffffffffffffffffffffffffffff1673ffffffffffffffffffffffffffffffffffffffff16815260200190815260200160002081905550506200045c565b600033905090565b600060018054906101000a900473ffffffffffffffffffffffffffffffffffffffff169050816001806101000a81548173ffffffffffffffffffffffffffffffffffffffff021916908373ffffffffffffffffffffffffffffffffffffffff1602179055508173ffffffffffffffffffffffffffffffffffffffff168173ffffffffffffffffffffffffffffffffffffffff167f8be0079c531659141344cd1fd0a4f28419497f9722a3daafe3b4186f6b6457e060405160405180910390a35050565b600080fd5b600073ffffffffffffffffffffffffffffffffffffffff82169050919050565b6000620003f282620003c5565b9050919050565b6200040481620003e5565b81146200041057600080fd5b50565b6000815190506200042481620003f9565b92915050565b600060208284031215620004435762000442620003c0565b5b6000620004538482850162000413565b91505092915050565b613195806200046c6000396000f3fe6080604052600436106101185760003560e01c80637609d7f6116100a0578063ca5ce2ec11610064578063ca5ce2ec146103c8578063f2fde38b146103f1578063f340fa011461041a578063f3fef3a314610436578063fe6bcd7c1461045f5761011f565b80637609d7f6146102c55780638d730124146103075780638da5cb5b146103445780639782e8211461036f5780639f7c73e9146103ac5761011f565b80634b8a3529116100e75780634b8a3529146101f457806351323f721461021d5780635c975abb146102465780635e9a523c14610271578063715018a6146102ae5761011f565b806323685b9714610124578063274ec5711461014f578063334df6d11461018c578063395ea961146101b55761011f565b3661011f57005b600080fd5b34801561013057600080fd5b5061013961049c565b6040516101469190612456565b60405180910390f35b34801561015b57600080fd5b50610176600480360381019061017191906124b4565b6104c2565b604051610183919061250d565b60405180910390f35b34801561019857600080fd5b506101b360048036038101906101ae9190612554565b610854565b005b3480156101c157600080fd5b506101dc60048036038101906101d791906124b4565b610a46565b6040516101eb939291906125e1565b60405180910390f35b34801561020057600080fd5b5061021b60048036038101906102169190612618565b610a7d565b005b34801561022957600080fd5b50610244600480360381019061023f9190612618565b610e52565b005b34801561025257600080fd5b5061025b610f31565b6040516102689190612673565b60405180910390f35b34801561027d57600080fd5b506102986004803603810190610293919061268e565b610f48565b6040516102a5919061250d565b60405180910390f35b3480156102ba57600080fd5b506102c3610f60565b005b3480156102d157600080fd5b506102ec60048036038101906102e7919061268e565b610f74565b6040516102fe969594939291906126bb565b60405180910390f35b34801561031357600080fd5b5061032e6004803603810190610329919061268e565b610fbd565b60405161033b919061250d565b60405180910390f35b34801561035057600080fd5b50610359610fd5565b604051610366919061272b565b60405180910390f35b34801561037b57600080fd5b506103966004803603810190610391919061268e565b610ffd565b6040516103a3919061250d565b60405180910390f35b6103c660048036038101906103c1919061268e565b611015565b005b3480156103d457600080fd5b506103ef60048036038101906103ea9190612746565b61122b565b005b3480156103fd57600080fd5b506104186004803603810190610413919061268e565b61172e565b005b610434600480360381019061042f919061268e565b6117b1565b005b34801561044257600080fd5b5061045d60048036038101906104589190612618565b611af6565b005b34801561046b57600080fd5b506104866004803603810190610481919061268e565b611e84565b604051610493919061250d565b60405180910390f35b600260009054906101000a900473ffffffffffffffffffffffffffffffffffffffff1681565b600080600090506000805b600281101561067857600080821461050757600260009054906101000a900473ffffffffffffffffffffffffffffffffffffffff1661050a565b60005b90506000600460008973ffffffffffffffffffffffffffffffffffffffff1673ffffffffffffffffffffffffffffffffffffffff16815260200190815260200160002060008373ffffffffffffffffffffffffffffffffffffffff1673ffffffffffffffffffffffffffffffffffffffff168152602001908152602001600020905060008160000154111561066357612710670de0b6b3a7640000600360008573ffffffffffffffffffffffffffffffffffffffff1673ffffffffffffffffffffffffffffffffffffffff16815260200190815260200160002060000154600760008673ffffffffffffffffffffffffffffffffffffffff1673ffffffffffffffffffffffffffffffffffffffff16815260200190815260200160002054846000015461063791906127c8565b61064191906127c8565b61064b9190612839565b6106559190612839565b85610660919061286a565b94505b505080806106709061289e565b9150506104cd565b5060005b60028110156107cd5760008082146106b657600260009054906101000a900473ffffffffffffffffffffffffffffffffffffffff166106b9565b60005b90506000600460008973ffffffffffffffffffffffffffffffffffffffff1673ffffffffffffffffffffffffffffffffffffffff16815260200190815260200160002060008373ffffffffffffffffffffffffffffffffffffffff1673ffffffffffffffffffffffffffffffffffffffff16815260200190815260200160002090506000816001015411156107b857670de0b6b3a7640000600760008473ffffffffffffffffffffffffffffffffffffffff1673ffffffffffffffffffffffffffffffffffffffff1681526020019081526020016000205482600101546107a091906127c8565b6107aa9190612839565b846107b5919061286a565b93505b505080806107c59061289e565b91505061067c565b508181106107e05760009250505061084e565b600760008573ffffffffffffffffffffffffffffffffffffffff1673ffffffffffffffffffffffffffffffffffffffff16815260200190815260200160002054670de0b6b3a7640000828461083591906128e6565b61083f91906127c8565b6108499190612839565b925050505b92915050565b61085c6121eb565b6123288511156108a1576040517f08c379a000000000000000000000000000000000000000000000000000000000815260040161089890612977565b60405180910390fd5b8484116108e3576040517f08c379a00000000000000000000000000000000000000000000000000000000081526004016108da906129e3565b60405180910390fd5b6103e8831115610928576040517f08c379a000000000000000000000000000000000000000000000000000000000815260040161091f90612a4f565b60405180910390fd5b6040518060c0016040528086815260200185815260200184815260200183815260200182815260200160011515815250600360008873ffffffffffffffffffffffffffffffffffffffff1673ffffffffffffffffffffffffffffffffffffffff168152602001908152602001600020600082015181600001556020820151816001015560408201518160020155606082015181600301556080820151816004015560a08201518160050160006101000a81548160ff0219169083151502179055509050508573ffffffffffffffffffffffffffffffffffffffff167f16b940d322e6fdbf90e85acbdf71d2a22ccc6bdea8367c83749ef2bead5d359c868686604051610a36939291906125e1565b60405180910390a2505050505050565b6004602052816000526040600020602052806000526040600020600091509150508060000154908060010154908060020154905083565b610a85612269565b610a8d6122b8565b60008111610ad0576040517f08c379a0000000000000000000000000000000000000000000000000000000008152600401610ac790612abb565b60405180910390fd5b600360008373ffffffffffffffffffffffffffffffffffffffff1673ffffffffffffffffffffffffffffffffffffffff16815260200190815260200160002060050160009054906101000a900460ff16610b5f576040517f08c379a0000000000000000000000000000000000000000000000000000000008152600401610b5690612b27565b60405180910390fd5b6000610b6b33846104c2565b905080821115610bb0576040517f08c379a0000000000000000000000000000000000000000000000000000000008152600401610ba790612b93565b60405180910390fd5b6000600460003373ffffffffffffffffffffffffffffffffffffffff1673ffffffffffffffffffffffffffffffffffffffff16815260200190815260200160002060008573ffffffffffffffffffffffffffffffffffffffff1673ffffffffffffffffffffffffffffffffffffffff168152602001908152602001600020905082816001016000828254610c44919061286a565b9250508190555082600660008673ffffffffffffffffffffffffffffffffffffffff1673ffffffffffffffffffffffffffffffffffffffff1681526020019081526020016000206000828254610c9a919061286a565b92505081905550600073ffffffffffffffffffffffffffffffffffffffff168473ffffffffffffffffffffffffffffffffffffffff1603610d21573373ffffffffffffffffffffffffffffffffffffffff166108fc849081150290604051600060405180830381858888f19350505050158015610d1b573d6000803e3d6000fd5b50610ddf565b8373ffffffffffffffffffffffffffffffffffffffff1663a9059cbb33856040518363ffffffff1660e01b8152600401610d5c929190612bb3565b6020604051808303816000875af1158015610d7b573d6000803e3d6000fd5b505050506040513d601f19601f82011682018060405250810190610d9f9190612c08565b610dde576040517f08c379a0000000000000000000000000000000000000000000000000000000008152600401610dd590612c81565b60405180910390fd5b5b8373ffffffffffffffffffffffffffffffffffffffff163373ffffffffffffffffffffffffffffffffffffffff167f312a5e5e1079f5dda4e95dbbd0b908b291fd5b992ef22073643ab691572c5b5285604051610e3c919061250d565b60405180910390a35050610e4e612302565b5050565b610e5a6121eb565b8173ffffffffffffffffffffffffffffffffffffffff167fb556fac599c3c70efb9ab1fa725ecace6c81cc48d1455f886607def065f3e0c0600760008573ffffffffffffffffffffffffffffffffffffffff1673ffffffffffffffffffffffffffffffffffffffff1681526020019081526020016000205483604051610ee1929190612ca1565b60405180910390a280600760008473ffffffffffffffffffffffffffffffffffffffff1673ffffffffffffffffffffffffffffffffffffffff168152602001908152602001600020819055505050565b6000600160009054906101000a900460ff16905090565b60076020528060005260406000206000915090505481565b610f686121eb565b610f72600061230c565b565b60036020528060005260406000206000915090508060000154908060010154908060020154908060030154908060040154908060050160009054906101000a900460ff16905086565b60066020528060005260406000206000915090505481565b600060018054906101000a900473ffffffffffffffffffffffffffffffffffffffff16905090565b60056020528060005260406000206000915090505481565b61101d612269565b6110256122b8565b60003411611068576040517f08c379a000000000000000000000000000000000000000000000000000000000815260040161105f90612d16565b60405180910390fd5b6000600460003373ffffffffffffffffffffffffffffffffffffffff1673ffffffffffffffffffffffffffffffffffffffff16815260200190815260200160002060008373ffffffffffffffffffffffffffffffffffffffff1673ffffffffffffffffffffffffffffffffffffffff1681526020019081526020016000209050600081600101541161112f576040517f08c379a000000000000000000000000000000000000000000000000000000000815260040161112690612d82565b60405180910390fd5b6000349050816001015481111561114857816001015490505b8082600101600082825461115c91906128e6565b9250508190555080600660008573ffffffffffffffffffffffffffffffffffffffff1673ffffffffffffffffffffffffffffffffffffffff16815260200190815260200160002060008282546111b291906128e6565b925050819055508273ffffffffffffffffffffffffffffffffffffffff163373ffffffffffffffffffffffffffffffffffffffff167f05f2eeda0e08e4b437f487c8d7d29b14537d15e3488170dc3de5dbdf8dac468483604051611216919061250d565b60405180910390a35050611228612302565b50565b611233612269565b61123b6122b8565b670de0b6b3a764000061124d84611e84565b1061128d576040517f08c379a000000000000000000000000000000000000000000000000000000000815260040161128490612dee565b60405180910390fd5b6000600460008573ffffffffffffffffffffffffffffffffffffffff1673ffffffffffffffffffffffffffffffffffffffff16815260200190815260200160002060008473ffffffffffffffffffffffffffffffffffffffff1673ffffffffffffffffffffffffffffffffffffffff16815260200190815260200160002090506000600460008673ffffffffffffffffffffffffffffffffffffffff1673ffffffffffffffffffffffffffffffffffffffff16815260200190815260200160002060008473ffffffffffffffffffffffffffffffffffffffff1673ffffffffffffffffffffffffffffffffffffffff168152602001908152602001600020905060008260000154116113d4576040517f08c379a00000000000000000000000000000000000000000000000000000000081526004016113cb90612e5a565b60405180910390fd5b600081600101541161141b576040517f08c379a000000000000000000000000000000000000000000000000000000000815260040161141290612d82565b60405180910390fd5b6000826000015490506000826001015490506000612710600360008973ffffffffffffffffffffffffffffffffffffffff1673ffffffffffffffffffffffffffffffffffffffff168152602001908152602001600020600201548461148091906127c8565b61148a9190612839565b9050600085600001819055506000846001018190555082600560008973ffffffffffffffffffffffffffffffffffffffff1673ffffffffffffffffffffffffffffffffffffffff16815260200190815260200160002060008282546114ef91906128e6565b9250508190555081600660008873ffffffffffffffffffffffffffffffffffffffff1673ffffffffffffffffffffffffffffffffffffffff168152602001908152602001600020600082825461154591906128e6565b92505081905550600073ffffffffffffffffffffffffffffffffffffffff168773ffffffffffffffffffffffffffffffffffffffff16036115d7573373ffffffffffffffffffffffffffffffffffffffff166108fc82856115a6919061286a565b9081150290604051600060405180830381858888f193505050501580156115d1573d6000803e3d6000fd5b506116a0565b8673ffffffffffffffffffffffffffffffffffffffff1663a9059cbb338386611600919061286a565b6040518363ffffffff1660e01b815260040161161d929190612bb3565b6020604051808303816000875af115801561163c573d6000803e3d6000fd5b505050506040513d601f19601f820116820180604052508101906116609190612c08565b61169f576040517f08c379a000000000000000000000000000000000000000000000000000000000815260040161169690612c81565b60405180910390fd5b5b8573ffffffffffffffffffffffffffffffffffffffff168773ffffffffffffffffffffffffffffffffffffffff168973ffffffffffffffffffffffffffffffffffffffff167f033fe6dadd06de536cd7b34266e12610e9d77a23d48d3d6218962a87cb74051486604051611714919061250d565b60405180910390a45050505050611729612302565b505050565b6117366121eb565b600073ffffffffffffffffffffffffffffffffffffffff168173ffffffffffffffffffffffffffffffffffffffff16036117a5576040517f08c379a000000000000000000000000000000000000000000000000000000000815260040161179c90612eec565b60405180910390fd5b6117ae8161230c565b50565b6117b9612269565b6117c16122b8565b600360008273ffffffffffffffffffffffffffffffffffffffff1673ffffffffffffffffffffffffffffffffffffffff16815260200190815260200160002060050160009054906101000a900460ff16611850576040517f08c379a000000000000000000000000000000000000000000000000000000000815260040161184790612b27565b60405180910390fd5b60008073ffffffffffffffffffffffffffffffffffffffff168273ffffffffffffffffffffffffffffffffffffffff160361188d57349050611993565b349050600081116118d3576040517f08c379a00000000000000000000000000000000000000000000000000000000081526004016118ca90612abb565b60405180910390fd5b8173ffffffffffffffffffffffffffffffffffffffff166323b872dd3330846040518463ffffffff1660e01b815260040161191093929190612f0c565b6020604051808303816000875af115801561192f573d6000803e3d6000fd5b505050506040513d601f19601f820116820180604052508101906119539190612c08565b611992576040517f08c379a000000000000000000000000000000000000000000000000000000000815260040161198990612c81565b60405180910390fd5b5b6000600460003373ffffffffffffffffffffffffffffffffffffffff1673ffffffffffffffffffffffffffffffffffffffff16815260200190815260200160002060008473ffffffffffffffffffffffffffffffffffffffff1673ffffffffffffffffffffffffffffffffffffffff168152602001908152602001600020905081816000016000828254611a27919061286a565b9250508190555081600560008573ffffffffffffffffffffffffffffffffffffffff1673ffffffffffffffffffffffffffffffffffffffff1681526020019081526020016000206000828254611a7d919061286a565b925050819055508273ffffffffffffffffffffffffffffffffffffffff163373ffffffffffffffffffffffffffffffffffffffff167f5548c837ab068cf56a2c2479df0882a4922fd203edb7517321831d95078c5f6284604051611ae1919061250d565b60405180910390a35050611af3612302565b50565b611afe612269565b611b066122b8565b60008111611b49576040517f08c379a0000000000000000000000000000000000000000000000000000000008152600401611b4090612abb565b60405180910390fd5b6000600460003373ffffffffffffffffffffffffffffffffffffffff1673ffffffffffffffffffffffffffffffffffffffff16815260200190815260200160002060008473ffffffffffffffffffffffffffffffffffffffff1673ffffffffffffffffffffffffffffffffffffffff16815260200190815260200160002090508181600001541015611c10576040517f08c379a0000000000000000000000000000000000000000000000000000000008152600401611c0790612f8f565b60405180910390fd5b670de0b6b3a7640000611c2233611e84565b1015611c63576040517f08c379a0000000000000000000000000000000000000000000000000000000008152600401611c5a90612ffb565b60405180910390fd5b81816000016000828254611c7791906128e6565b9250508190555081600560008573ffffffffffffffffffffffffffffffffffffffff1673ffffffffffffffffffffffffffffffffffffffff1681526020019081526020016000206000828254611ccd91906128e6565b92505081905550600073ffffffffffffffffffffffffffffffffffffffff168373ffffffffffffffffffffffffffffffffffffffff1603611d54573373ffffffffffffffffffffffffffffffffffffffff166108fc839081150290604051600060405180830381858888f19350505050158015611d4e573d6000803e3d6000fd5b50611e12565b8273ffffffffffffffffffffffffffffffffffffffff1663a9059cbb33846040518363ffffffff1660e01b8152600401611d8f929190612bb3565b6020604051808303816000875af1158015611dae573d6000803e3d6000fd5b505050506040513d601f19601f82011682018060405250810190611dd29190612c08565b611e11576040517f08c379a0000000000000000000000000000000000000000000000000000000008152600401611e0890612c81565b60405180910390fd5b5b8273ffffffffffffffffffffffffffffffffffffffff163373ffffffffffffffffffffffffffffffffffffffff167f9b1bfa7fa9ee420a16e124f794c35ac9f90472acc99140eb2f6447c714cad8eb84604051611e6f919061250d565b60405180910390a350611e80612302565b5050565b600080600090506000805b600281101561203a576000808214611ec957600260009054906101000a900473ffffffffffffffffffffffffffffffffffffffff16611ecc565b60005b90506000600460008873ffffffffffffffffffffffffffffffffffffffff1673ffffffffffffffffffffffffffffffffffffffff16815260200190815260200160002060008373ffffffffffffffffffffffffffffffffffffffff1673ffffffffffffffffffffffffffffffffffffffff168152602001908152602001600020905060008160000154111561202557612710670de0b6b3a7640000600360008573ffffffffffffffffffffffffffffffffffffffff1673ffffffffffffffffffffffffffffffffffffffff16815260200190815260200160002060010154600760008673ffffffffffffffffffffffffffffffffffffffff1673ffffffffffffffffffffffffffffffffffffffff168152602001908152602001600020548460000154611ff991906127c8565b61200391906127c8565b61200d9190612839565b6120179190612839565b85612022919061286a565b94505b505080806120329061289e565b915050611e8f565b5060005b600281101561218f57600080821461207857600260009054906101000a900473ffffffffffffffffffffffffffffffffffffffff1661207b565b60005b90506000600460008873ffffffffffffffffffffffffffffffffffffffff1673ffffffffffffffffffffffffffffffffffffffff16815260200190815260200160002060008373ffffffffffffffffffffffffffffffffffffffff1673ffffffffffffffffffffffffffffffffffffffff168152602001908152602001600020905060008160010154111561217a57670de0b6b3a7640000600760008473ffffffffffffffffffffffffffffffffffffffff1673ffffffffffffffffffffffffffffffffffffffff16815260200190815260200160002054826001015461216291906127c8565b61216c9190612839565b84612177919061286a565b93505b505080806121879061289e565b91505061203e565b50600081036121c2577fffffffffffffffffffffffffffffffffffffffffffffffffffffffffffffffff925050506121e6565b80670de0b6b3a7640000836121d791906127c8565b6121e19190612839565b925050505b919050565b6121f36123cf565b73ffffffffffffffffffffffffffffffffffffffff16612211610fd5565b73ffffffffffffffffffffffffffffffffffffffff1614612267576040517f08c379a000000000000000000000000000000000000000000000000000000000815260040161225e90613067565b60405180910390fd5b565b6002600054036122ae576040517f08c379a00000000000000000000000000000000000000000000000000000000081526004016122a5906130d3565b60405180910390fd5b6002600081905550565b6122c0610f31565b15612300576040517f08c379a00000000000000000000000000000000000000000000000000000000081526004016122f79061313f565b60405180910390fd5b565b6001600081905550565b600060018054906101000a900473ffffffffffffffffffffffffffffffffffffffff169050816001806101000a81548173ffffffffffffffffffffffffffffffffffffffff021916908373ffffffffffffffffffffffffffffffffffffffff1602179055508173ffffffffffffffffffffffffffffffffffffffff168173ffffffffffffffffffffffffffffffffffffffff167f8be0079c531659141344cd1fd0a4f28419497f9722a3daafe3b4186f6b6457e060405160405180910390a35050565b600033905090565b600073ffffffffffffffffffffffffffffffffffffffff82169050919050565b6000819050919050565b600061241c612417612412846123d7565b6123f7565b6123d7565b9050919050565b600061242e82612401565b9050919050565b600061244082612423565b9050919050565b61245081612435565b82525050565b600060208201905061246b6000830184612447565b92915050565b600080fd5b6000612481826123d7565b9050919050565b61249181612476565b811461249c57600080fd5b50565b6000813590506124ae81612488565b92915050565b600080604083850312156124cb576124ca612471565b5b60006124d98582860161249f565b92505060206124ea8582860161249f565b9150509250929050565b6000819050919050565b612507816124f4565b82525050565b600060208201905061252260008301846124fe565b92915050565b612531816124f4565b811461253c57600080fd5b50565b60008135905061254e81612528565b92915050565b60008060008060008060c0878903121561257157612570612471565b5b600061257f89828a0161249f565b965050602061259089828a0161253f565b95505060406125a189828a0161253f565b94505060606125b289828a0161253f565b93505060806125c389828a0161253f565b92505060a06125d489828a0161253f565b9150509295509295509295565b60006060820190506125f660008301866124fe565b61260360208301856124fe565b61261060408301846124fe565b949350505050565b6000806040838503121561262f5761262e612471565b5b600061263d8582860161249f565b925050602061264e8582860161253f565b9150509250929050565b60008115159050919050565b61266d81612658565b82525050565b60006020820190506126886000830184612664565b92915050565b6000602082840312156126a4576126a3612471565b5b60006126b28482850161249f565b91505092915050565b600060c0820190506126d060008301896124fe565b6126dd60208301886124fe565b6126ea60408301876124fe565b6126f760608301866124fe565b61270460808301856124fe565b61271160a0830184612664565b979650505050505050565b61272581612476565b82525050565b6000602082019050612740600083018461271c565b92915050565b60008060006060848603121561275f5761275e612471565b5b600061276d8682870161249f565b935050602061277e8682870161249f565b925050604061278f8682870161249f565b9150509250925092565b7f4e487b7100000000000000000000000000000000000000000000000000000000600052601160045260246000fd5b60006127d3826124f4565b91506127de836124f4565b92508282026127ec816124f4565b9150828204841483151761280357612802612799565b5b5092915050565b7f4e487b7100000000000000000000000000000000000000000000000000000000600052601260045260246000fd5b6000612844826124f4565b915061284f836124f4565b92508261285f5761285e61280a565b5b828204905092915050565b6000612875826124f4565b9150612880836124f4565b925082820190508082111561289857612897612799565b5b92915050565b60006128a9826124f4565b91507fffffffffffffffffffffffffffffffffffffffffffffffffffffffffffffffff82036128db576128da612799565b5b600182019050919050565b60006128f1826124f4565b91506128fc836124f4565b925082820390508181111561291457612913612799565b5b92915050565b600082825260208201905092915050565b7f4c545620746f6f20686967680000000000000000000000000000000000000000600082015250565b6000612961600c8361291a565b915061296c8261292b565b602082019050919050565b6000602082019050818103600083015261299081612954565b9050919050565b7f496e76616c6964206c69717569646174696f6e207468726573686f6c64000000600082015250565b60006129cd601d8361291a565b91506129d882612997565b602082019050919050565b600060208201905081810360008301526129fc816129c0565b9050919050565b7f426f6e757320746f6f2068696768000000000000000000000000000000000000600082015250565b6000612a39600e8361291a565b9150612a4482612a03565b602082019050919050565b60006020820190508181036000830152612a6881612a2c565b9050919050565b7f416d6f756e74206d757374206265203e20300000000000000000000000000000600082015250565b6000612aa560128361291a565b9150612ab082612a6f565b602082019050919050565b60006020820190508181036000830152612ad481612a98565b9050919050565b7f4173736574206e6f742061637469766500000000000000000000000000000000600082015250565b6000612b1160108361291a565b9150612b1c82612adb565b602082019050919050565b60006020820190508181036000830152612b4081612b04565b9050919050565b7f4578636565647320626f72726f77206c696d6974000000000000000000000000600082015250565b6000612b7d60148361291a565b9150612b8882612b47565b602082019050919050565b60006020820190508181036000830152612bac81612b70565b9050919050565b6000604082019050612bc8600083018561271c565b612bd560208301846124fe565b9392505050565b612be581612658565b8114612bf057600080fd5b50565b600081519050612c0281612bdc565b92915050565b600060208284031215612c1e57612c1d612471565b5b6000612c2c84828501612bf3565b91505092915050565b7f5472616e73666572206661696c65640000000000000000000000000000000000600082015250565b6000612c6b600f8361291a565b9150612c7682612c35565b602082019050919050565b60006020820190508181036000830152612c9a81612c5e565b9050919050565b6000604082019050612cb660008301856124fe565b612cc360208301846124fe565b9392505050565b7f4e6f2076616c75652073656e7400000000000000000000000000000000000000600082015250565b6000612d00600d8361291a565b9150612d0b82612cca565b602082019050919050565b60006020820190508181036000830152612d2f81612cf3565b9050919050565b7f4e6f206465627400000000000000000000000000000000000000000000000000600082015250565b6000612d6c60078361291a565b9150612d7782612d36565b602082019050919050565b60006020820190508181036000830152612d9b81612d5f565b9050919050565b7f55736572206973206865616c7468790000000000000000000000000000000000600082015250565b6000612dd8600f8361291a565b9150612de382612da2565b602082019050919050565b60006020820190508181036000830152612e0781612dcb565b9050919050565b7f4e6f20636f6c6c61746572616c00000000000000000000000000000000000000600082015250565b6000612e44600d8361291a565b9150612e4f82612e0e565b602082019050919050565b60006020820190508181036000830152612e7381612e37565b9050919050565b7f4f776e61626c653a206e6577206f776e657220697320746865207a65726f206160008201527f6464726573730000000000000000000000000000000000000000000000000000602082015250565b6000612ed660268361291a565b9150612ee182612e7a565b604082019050919050565b60006020820190508181036000830152612f0581612ec9565b9050919050565b6000606082019050612f21600083018661271c565b612f2e602083018561271c565b612f3b60408301846124fe565b949350505050565b7f496e73756666696369656e7420636f6c6c61746572616c000000000000000000600082015250565b6000612f7960178361291a565b9150612f8482612f43565b602082019050919050565b60006020820190508181036000830152612fa881612f6c565b9050919050565b7f4865616c746820666163746f7220746f6f206c6f770000000000000000000000600082015250565b6000612fe560158361291a565b9150612ff082612faf565b602082019050919050565b6000602082019050818103600083015261301481612fd8565b9050919050565b7f4f776e61626c653a2063616c6c6572206973206e6f7420746865206f776e6572600082015250565b600061305160208361291a565b915061305c8261301b565b602082019050919050565b6000602082019050818103600083015261308081613044565b9050919050565b7f5265656e7472616e637947756172643a207265656e7472616e742063616c6c00600082015250565b60006130bd601f8361291a565b91506130c882613087565b602082019050919050565b600060208201905081810360008301526130ec816130b0565b9050919050565b7f5061757361626c653a2070617573656400000000000000000000000000000000600082015250565b600061312960108361291a565b9150613134826130f3565b602082019050919050565b600060208201905081810360008301526131588161311c565b905091905056fea2646970667358221220fdbac7fdae2cedba206aa648ec1f574c944bbcd77bea3db374af7748c44adb1b64736f6c63430008140033",
  "linkReferences": {},
  "deployedLinkReferences": {}
}